{
	"loop.sol": {
		"myLoopingContract": {
			"abi": [
				{
					"inputs": [],
					"name": "evenNumbersLoop",
					"outputs": [
						{
							"internalType": "uint256",
							"name": "",
							"type": "uint256"
						}
					],
					"stateMutability": "view",
					"type": "function"
				},
				{
					"inputs": [
						{
							"internalType": "uint256",
							"name": "userNumber",
							"type": "uint256"
						}
					],
					"name": "numberListLoop",
					"outputs": [
						{
							"internalType": "bool",
							"name": "",
							"type": "bool"
						}
					],
					"stateMutability": "view",
					"type": "function"
				}
			],
			"devdoc": {
				"kind": "dev",
				"methods": {},
				"version": 1
			},
			"evm": {
				"assembly": "    /* \"loop.sol\":35:771  contract myLoopingContract {... */\n  mstore(0x40, 0x80)\n    /* \"loop.sol\":71:142  uint [] longlist = [1,2,3,4,5,6,7,8,9,10,11,12,13,14,15,16,17,18,19,20] */\n  mload(0x40)\n  dup1\n  0x0280\n  add\n  0x40\n  mstore\n  dup1\n    /* \"loop.sol\":91:92  1 */\n  0x01\n    /* \"loop.sol\":71:142  uint [] longlist = [1,2,3,4,5,6,7,8,9,10,11,12,13,14,15,16,17,18,19,20] */\n  0xff\n  and\n  dup2\n  mstore\n  0x20\n  add\n    /* \"loop.sol\":93:94  2 */\n  0x02\n    /* \"loop.sol\":71:142  uint [] longlist = [1,2,3,4,5,6,7,8,9,10,11,12,13,14,15,16,17,18,19,20] */\n  0xff\n  and\n  dup2\n  mstore\n  0x20\n  add\n    /* \"loop.sol\":95:96  3 */\n  0x03\n    /* \"loop.sol\":71:142  uint [] longlist = [1,2,3,4,5,6,7,8,9,10,11,12,13,14,15,16,17,18,19,20] */\n  0xff\n  and\n  dup2\n  mstore\n  0x20\n  add\n    /* \"loop.sol\":97:98  4 */\n  0x04\n    /* \"loop.sol\":71:142  uint [] longlist = [1,2,3,4,5,6,7,8,9,10,11,12,13,14,15,16,17,18,19,20] */\n  0xff\n  and\n  dup2\n  mstore\n  0x20\n  add\n    /* \"loop.sol\":99:100  5 */\n  0x05\n    /* \"loop.sol\":71:142  uint [] longlist = [1,2,3,4,5,6,7,8,9,10,11,12,13,14,15,16,17,18,19,20] */\n  0xff\n  and\n  dup2\n  mstore\n  0x20\n  add\n    /* \"loop.sol\":101:102  6 */\n  0x06\n    /* \"loop.sol\":71:142  uint [] longlist = [1,2,3,4,5,6,7,8,9,10,11,12,13,14,15,16,17,18,19,20] */\n  0xff\n  and\n  dup2\n  mstore\n  0x20\n  add\n    /* \"loop.sol\":103:104  7 */\n  0x07\n    /* \"loop.sol\":71:142  uint [] longlist = [1,2,3,4,5,6,7,8,9,10,11,12,13,14,15,16,17,18,19,20] */\n  0xff\n  and\n  dup2\n  mstore\n  0x20\n  add\n    /* \"loop.sol\":105:106  8 */\n  0x08\n    /* \"loop.sol\":71:142  uint [] longlist = [1,2,3,4,5,6,7,8,9,10,11,12,13,14,15,16,17,18,19,20] */\n  0xff\n  and\n  dup2\n  mstore\n  0x20\n  add\n    /* \"loop.sol\":107:108  9 */\n  0x09\n    /* \"loop.sol\":71:142  uint [] longlist = [1,2,3,4,5,6,7,8,9,10,11,12,13,14,15,16,17,18,19,20] */\n  0xff\n  and\n  dup2\n  mstore\n  0x20\n  add\n    /* \"loop.sol\":109:111  10 */\n  0x0a\n    /* \"loop.sol\":71:142  uint [] longlist = [1,2,3,4,5,6,7,8,9,10,11,12,13,14,15,16,17,18,19,20] */\n  0xff\n  and\n  dup2\n  mstore\n  0x20\n  add\n    /* \"loop.sol\":112:114  11 */\n  0x0b\n    /* \"loop.sol\":71:142  uint [] longlist = [1,2,3,4,5,6,7,8,9,10,11,12,13,14,15,16,17,18,19,20] */\n  0xff\n  and\n  dup2\n  mstore\n  0x20\n  add\n    /* \"loop.sol\":115:117  12 */\n  0x0c\n    /* \"loop.sol\":71:142  uint [] longlist = [1,2,3,4,5,6,7,8,9,10,11,12,13,14,15,16,17,18,19,20] */\n  0xff\n  and\n  dup2\n  mstore\n  0x20\n  add\n    /* \"loop.sol\":118:120  13 */\n  0x0d\n    /* \"loop.sol\":71:142  uint [] longlist = [1,2,3,4,5,6,7,8,9,10,11,12,13,14,15,16,17,18,19,20] */\n  0xff\n  and\n  dup2\n  mstore\n  0x20\n  add\n    /* \"loop.sol\":121:123  14 */\n  0x0e\n    /* \"loop.sol\":71:142  uint [] longlist = [1,2,3,4,5,6,7,8,9,10,11,12,13,14,15,16,17,18,19,20] */\n  0xff\n  and\n  dup2\n  mstore\n  0x20\n  add\n    /* \"loop.sol\":124:126  15 */\n  0x0f\n    /* \"loop.sol\":71:142  uint [] longlist = [1,2,3,4,5,6,7,8,9,10,11,12,13,14,15,16,17,18,19,20] */\n  0xff\n  and\n  dup2\n  mstore\n  0x20\n  add\n    /* \"loop.sol\":127:129  16 */\n  0x10\n    /* \"loop.sol\":71:142  uint [] longlist = [1,2,3,4,5,6,7,8,9,10,11,12,13,14,15,16,17,18,19,20] */\n  0xff\n  and\n  dup2\n  mstore\n  0x20\n  add\n    /* \"loop.sol\":130:132  17 */\n  0x11\n    /* \"loop.sol\":71:142  uint [] longlist = [1,2,3,4,5,6,7,8,9,10,11,12,13,14,15,16,17,18,19,20] */\n  0xff\n  and\n  dup2\n  mstore\n  0x20\n  add\n    /* \"loop.sol\":133:135  18 */\n  0x12\n    /* \"loop.sol\":71:142  uint [] longlist = [1,2,3,4,5,6,7,8,9,10,11,12,13,14,15,16,17,18,19,20] */\n  0xff\n  and\n  dup2\n  mstore\n  0x20\n  add\n    /* \"loop.sol\":136:138  19 */\n  0x13\n    /* \"loop.sol\":71:142  uint [] longlist = [1,2,3,4,5,6,7,8,9,10,11,12,13,14,15,16,17,18,19,20] */\n  0xff\n  and\n  dup2\n  mstore\n  0x20\n  add\n    /* \"loop.sol\":139:141  20 */\n  0x14\n    /* \"loop.sol\":71:142  uint [] longlist = [1,2,3,4,5,6,7,8,9,10,11,12,13,14,15,16,17,18,19,20] */\n  0xff\n  and\n  dup2\n  mstore\n  pop\n  0x00\n  swap1\n  0x14\n  tag_1\n  swap3\n  swap2\n  swap1\n  tag_2\n  jump\t// in\ntag_1:\n  pop\n    /* \"loop.sol\":149:182  uint [] numbersList = [1,4,34,56] */\n  mload(0x40)\n  dup1\n  0x80\n  add\n  0x40\n  mstore\n  dup1\n    /* \"loop.sol\":172:173  1 */\n  0x01\n    /* \"loop.sol\":149:182  uint [] numbersList = [1,4,34,56] */\n  0xff\n  and\n  dup2\n  mstore\n  0x20\n  add\n    /* \"loop.sol\":174:175  4 */\n  0x04\n    /* \"loop.sol\":149:182  uint [] numbersList = [1,4,34,56] */\n  0xff\n  and\n  dup2\n  mstore\n  0x20\n  add\n    /* \"loop.sol\":176:178  34 */\n  0x22\n    /* \"loop.sol\":149:182  uint [] numbersList = [1,4,34,56] */\n  0xff\n  and\n  dup2\n  mstore\n  0x20\n  add\n    /* \"loop.sol\":179:181  56 */\n  0x38\n    /* \"loop.sol\":149:182  uint [] numbersList = [1,4,34,56] */\n  0xff\n  and\n  dup2\n  mstore\n  pop\n  0x01\n  swap1\n  0x04\n  tag_3\n  swap3\n  swap2\n  swap1\n  tag_4\n  jump\t// in\ntag_3:\n  pop\n    /* \"loop.sol\":35:771  contract myLoopingContract {... */\n  callvalue\n  dup1\n  iszero\n  tag_5\n  jumpi\n  0x00\n  dup1\n  revert\ntag_5:\n  pop\n  jump(tag_6)\ntag_2:\n  dup3\n  dup1\n  sload\n  dup3\n  dup3\n  sstore\n  swap1\n  0x00\n  mstore\n  keccak256(0x00, 0x20)\n  swap1\n  dup2\n  add\n  swap3\n  dup3\n  iszero\n  tag_7\n  jumpi\n  swap2\n  0x20\n  mul\n  dup3\n  add\ntag_8:\n  dup3\n  dup2\n  gt\n  iszero\n  tag_9\n  jumpi\n  dup3\n  mload\n  dup3\n  swap1\n  0xff\n  and\n  swap1\n  sstore\n  swap2\n  0x20\n  add\n  swap2\n  swap1\n  0x01\n  add\n  swap1\n  jump(tag_8)\ntag_9:\ntag_7:\n  pop\n  swap1\n  pop\n  tag_10\n  swap2\n  swap1\n  tag_11\n  jump\t// in\ntag_10:\n  pop\n  swap1\n  jump\t// out\ntag_4:\n  dup3\n  dup1\n  sload\n  dup3\n  dup3\n  sstore\n  swap1\n  0x00\n  mstore\n  keccak256(0x00, 0x20)\n  swap1\n  dup2\n  add\n  swap3\n  dup3\n  iszero\n  tag_12\n  jumpi\n  swap2\n  0x20\n  mul\n  dup3\n  add\ntag_13:\n  dup3\n  dup2\n  gt\n  iszero\n  tag_14\n  jumpi\n  dup3\n  mload\n  dup3\n  swap1\n  0xff\n  and\n  swap1\n  sstore\n  swap2\n  0x20\n  add\n  swap2\n  swap1\n  0x01\n  add\n  swap1\n  jump(tag_13)\ntag_14:\ntag_12:\n  pop\n  swap1\n  pop\n  tag_15\n  swap2\n  swap1\n  tag_11\n  jump\t// in\ntag_15:\n  pop\n  swap1\n  jump\t// out\ntag_11:\ntag_16:\n  dup1\n  dup3\n  gt\n  iszero\n  tag_17\n  jumpi\n  0x00\n  dup2\n  0x00\n  swap1\n  sstore\n  pop\n  0x01\n  add\n  jump(tag_16)\ntag_17:\n  pop\n  swap1\n  jump\t// out\ntag_6:\n  dataSize(sub_0)\n  dup1\n  dataOffset(sub_0)\n  0x00\n  codecopy\n  0x00\n  return\nstop\n\nsub_0: assembly {\n        /* \"loop.sol\":35:771  contract myLoopingContract {... */\n      mstore(0x40, 0x80)\n      callvalue\n      dup1\n      iszero\n      tag_1\n      jumpi\n      0x00\n      dup1\n      revert\n    tag_1:\n      pop\n      jumpi(tag_2, lt(calldatasize, 0x04))\n      shr(0xe0, calldataload(0x00))\n      dup1\n      0xdc5dd867\n      eq\n      tag_3\n      jumpi\n      dup1\n      0xed25cf75\n      eq\n      tag_4\n      jumpi\n    tag_2:\n      0x00\n      dup1\n      revert\n        /* \"loop.sol\":195:505  function numberListLoop(uint userNumber) public view returns ( bool ) {... */\n    tag_3:\n      tag_5\n      0x04\n      dup1\n      calldatasize\n      sub\n      dup2\n      add\n      swap1\n      tag_6\n      swap2\n      swap1\n      tag_7\n      jump\t// in\n    tag_6:\n      tag_8\n      jump\t// in\n    tag_5:\n      mload(0x40)\n      tag_9\n      swap2\n      swap1\n      tag_10\n      jump\t// in\n    tag_9:\n      mload(0x40)\n      dup1\n      swap2\n      sub\n      swap1\n      return\n        /* \"loop.sol\":513:768  function evenNumbersLoop() public view returns (uint) {... */\n    tag_4:\n      tag_11\n      tag_12\n      jump\t// in\n    tag_11:\n      mload(0x40)\n      tag_13\n      swap2\n      swap1\n      tag_14\n      jump\t// in\n    tag_13:\n      mload(0x40)\n      dup1\n      swap2\n      sub\n      swap1\n      return\n        /* \"loop.sol\":195:505  function numberListLoop(uint userNumber) public view returns ( bool ) {... */\n    tag_8:\n        /* \"loop.sol\":258:262  bool */\n      0x00\n        /* \"loop.sol\":276:293  bool numberExists */\n      dup1\n        /* \"loop.sol\":296:301  false */\n      0x00\n        /* \"loop.sol\":276:301  bool numberExists = false */\n      swap1\n      pop\n        /* \"loop.sol\":316:322  uint i */\n      0x00\n        /* \"loop.sol\":312:468  for(uint i =0; i< numbersList.length; i++) {... */\n    tag_16:\n        /* \"loop.sol\":330:341  numbersList */\n      0x01\n        /* \"loop.sol\":330:348  numbersList.length */\n      dup1\n      sload\n      swap1\n      pop\n        /* \"loop.sol\":327:328  i */\n      dup2\n        /* \"loop.sol\":327:348  i< numbersList.length */\n      lt\n        /* \"loop.sol\":312:468  for(uint i =0; i< numbersList.length; i++) {... */\n      iszero\n      tag_17\n      jumpi\n        /* \"loop.sol\":392:402  userNumber */\n      dup4\n        /* \"loop.sol\":374:385  numbersList */\n      0x01\n        /* \"loop.sol\":386:387  i */\n      dup3\n        /* \"loop.sol\":374:388  numbersList[i] */\n      dup2\n      sload\n      dup2\n      lt\n      tag_19\n      jumpi\n      tag_20\n      tag_21\n      jump\t// in\n    tag_20:\n    tag_19:\n      swap1\n      0x00\n      mstore\n      keccak256(0x00, 0x20)\n      add\n      sload\n        /* \"loop.sol\":374:402  numbersList[i] == userNumber */\n      sub\n        /* \"loop.sol\":370:457  if (numbersList[i] == userNumber){... */\n      tag_23\n      jumpi\n        /* \"loop.sol\":437:441  true */\n      0x01\n        /* \"loop.sol\":422:441  numberExists = true */\n      swap2\n      pop\n        /* \"loop.sol\":370:457  if (numbersList[i] == userNumber){... */\n    tag_23:\n        /* \"loop.sol\":350:353  i++ */\n      dup1\n      dup1\n      tag_24\n      swap1\n      tag_25\n      jump\t// in\n    tag_24:\n      swap2\n      pop\n      pop\n        /* \"loop.sol\":312:468  for(uint i =0; i< numbersList.length; i++) {... */\n      jump(tag_16)\n    tag_17:\n      pop\n        /* \"loop.sol\":485:497  numberExists */\n      dup1\n        /* \"loop.sol\":478:497  return numberExists */\n      swap2\n      pop\n      pop\n        /* \"loop.sol\":195:505  function numberListLoop(uint userNumber) public view returns ( bool ) {... */\n      swap2\n      swap1\n      pop\n      jump\t// out\n        /* \"loop.sol\":513:768  function evenNumbersLoop() public view returns (uint) {... */\n    tag_12:\n        /* \"loop.sol\":561:565  uint */\n      0x00\n        /* \"loop.sol\":578:588  uint count */\n      dup1\n        /* \"loop.sol\":591:592  0 */\n      0x00\n        /* \"loop.sol\":578:592  uint count = 0 */\n      swap1\n      pop\n        /* \"loop.sol\":608:614  uint i */\n      0x00\n        /* \"loop.sol\":603:738  for (uint i =0; i < longlist.length; i++) {... */\n    tag_27:\n        /* \"loop.sol\":623:631  longlist */\n      0x00\n        /* \"loop.sol\":623:638  longlist.length */\n      dup1\n      sload\n      swap1\n      pop\n        /* \"loop.sol\":619:620  i */\n      dup2\n        /* \"loop.sol\":619:638  i < longlist.length */\n      lt\n        /* \"loop.sol\":603:738  for (uint i =0; i < longlist.length; i++) {... */\n      iszero\n      tag_28\n      jumpi\n        /* \"loop.sol\":682:683  0 */\n      0x00\n        /* \"loop.sol\":677:678  2 */\n      0x02\n        /* \"loop.sol\":663:671  longlist */\n      0x00\n        /* \"loop.sol\":672:673  i */\n      dup4\n        /* \"loop.sol\":663:674  longlist[i] */\n      dup2\n      sload\n      dup2\n      lt\n      tag_30\n      jumpi\n      tag_31\n      tag_21\n      jump\t// in\n    tag_31:\n    tag_30:\n      swap1\n      0x00\n      mstore\n      keccak256(0x00, 0x20)\n      add\n      sload\n        /* \"loop.sol\":663:678  longlist[i] % 2 */\n      tag_33\n      swap2\n      swap1\n      tag_34\n      jump\t// in\n    tag_33:\n        /* \"loop.sol\":663:683  longlist[i] % 2 == 0 */\n      sub\n        /* \"loop.sol\":660:727  if(longlist[i] % 2 == 0) {... */\n      tag_35\n      jumpi\n        /* \"loop.sol\":704:711  count++ */\n      dup2\n      dup1\n      tag_36\n      swap1\n      tag_25\n      jump\t// in\n    tag_36:\n      swap3\n      pop\n      pop\n        /* \"loop.sol\":660:727  if(longlist[i] % 2 == 0) {... */\n    tag_35:\n        /* \"loop.sol\":640:643  i++ */\n      dup1\n      dup1\n      tag_37\n      swap1\n      tag_25\n      jump\t// in\n    tag_37:\n      swap2\n      pop\n      pop\n        /* \"loop.sol\":603:738  for (uint i =0; i < longlist.length; i++) {... */\n      jump(tag_27)\n    tag_28:\n      pop\n        /* \"loop.sol\":755:760  count */\n      dup1\n        /* \"loop.sol\":748:760  return count */\n      swap2\n      pop\n      pop\n        /* \"loop.sol\":513:768  function evenNumbersLoop() public view returns (uint) {... */\n      swap1\n      jump\t// out\n        /* \"#utility.yul\":88:205   */\n    tag_39:\n        /* \"#utility.yul\":197:198   */\n      0x00\n        /* \"#utility.yul\":194:195   */\n      dup1\n        /* \"#utility.yul\":187:199   */\n      revert\n        /* \"#utility.yul\":334:411   */\n    tag_41:\n        /* \"#utility.yul\":371:378   */\n      0x00\n        /* \"#utility.yul\":400:405   */\n      dup2\n        /* \"#utility.yul\":389:405   */\n      swap1\n      pop\n        /* \"#utility.yul\":334:411   */\n      swap2\n      swap1\n      pop\n      jump\t// out\n        /* \"#utility.yul\":417:539   */\n    tag_42:\n        /* \"#utility.yul\":490:514   */\n      tag_55\n        /* \"#utility.yul\":508:513   */\n      dup2\n        /* \"#utility.yul\":490:514   */\n      tag_41\n      jump\t// in\n    tag_55:\n        /* \"#utility.yul\":483:488   */\n      dup2\n        /* \"#utility.yul\":480:515   */\n      eq\n        /* \"#utility.yul\":470:533   */\n      tag_56\n      jumpi\n        /* \"#utility.yul\":529:530   */\n      0x00\n        /* \"#utility.yul\":526:527   */\n      dup1\n        /* \"#utility.yul\":519:531   */\n      revert\n        /* \"#utility.yul\":470:533   */\n    tag_56:\n        /* \"#utility.yul\":417:539   */\n      pop\n      jump\t// out\n        /* \"#utility.yul\":545:684   */\n    tag_43:\n        /* \"#utility.yul\":591:596   */\n      0x00\n        /* \"#utility.yul\":629:635   */\n      dup2\n        /* \"#utility.yul\":616:636   */\n      calldataload\n        /* \"#utility.yul\":607:636   */\n      swap1\n      pop\n        /* \"#utility.yul\":645:678   */\n      tag_58\n        /* \"#utility.yul\":672:677   */\n      dup2\n        /* \"#utility.yul\":645:678   */\n      tag_42\n      jump\t// in\n    tag_58:\n        /* \"#utility.yul\":545:684   */\n      swap3\n      swap2\n      pop\n      pop\n      jump\t// out\n        /* \"#utility.yul\":690:1019   */\n    tag_7:\n        /* \"#utility.yul\":749:755   */\n      0x00\n        /* \"#utility.yul\":798:800   */\n      0x20\n        /* \"#utility.yul\":786:795   */\n      dup3\n        /* \"#utility.yul\":777:784   */\n      dup5\n        /* \"#utility.yul\":773:796   */\n      sub\n        /* \"#utility.yul\":769:801   */\n      slt\n        /* \"#utility.yul\":766:885   */\n      iszero\n      tag_60\n      jumpi\n        /* \"#utility.yul\":804:883   */\n      tag_61\n      tag_39\n      jump\t// in\n    tag_61:\n        /* \"#utility.yul\":766:885   */\n    tag_60:\n        /* \"#utility.yul\":924:925   */\n      0x00\n        /* \"#utility.yul\":949:1002   */\n      tag_62\n        /* \"#utility.yul\":994:1001   */\n      dup5\n        /* \"#utility.yul\":985:991   */\n      dup3\n        /* \"#utility.yul\":974:983   */\n      dup6\n        /* \"#utility.yul\":970:992   */\n      add\n        /* \"#utility.yul\":949:1002   */\n      tag_43\n      jump\t// in\n    tag_62:\n        /* \"#utility.yul\":939:1002   */\n      swap2\n      pop\n        /* \"#utility.yul\":895:1012   */\n      pop\n        /* \"#utility.yul\":690:1019   */\n      swap3\n      swap2\n      pop\n      pop\n      jump\t// out\n        /* \"#utility.yul\":1025:1115   */\n    tag_44:\n        /* \"#utility.yul\":1059:1066   */\n      0x00\n        /* \"#utility.yul\":1102:1107   */\n      dup2\n        /* \"#utility.yul\":1095:1108   */\n      iszero\n        /* \"#utility.yul\":1088:1109   */\n      iszero\n        /* \"#utility.yul\":1077:1109   */\n      swap1\n      pop\n        /* \"#utility.yul\":1025:1115   */\n      swap2\n      swap1\n      pop\n      jump\t// out\n        /* \"#utility.yul\":1121:1230   */\n    tag_45:\n        /* \"#utility.yul\":1202:1223   */\n      tag_65\n        /* \"#utility.yul\":1217:1222   */\n      dup2\n        /* \"#utility.yul\":1202:1223   */\n      tag_44\n      jump\t// in\n    tag_65:\n        /* \"#utility.yul\":1197:1200   */\n      dup3\n        /* \"#utility.yul\":1190:1224   */\n      mstore\n        /* \"#utility.yul\":1121:1230   */\n      pop\n      pop\n      jump\t// out\n        /* \"#utility.yul\":1236:1446   */\n    tag_10:\n        /* \"#utility.yul\":1323:1327   */\n      0x00\n        /* \"#utility.yul\":1361:1363   */\n      0x20\n        /* \"#utility.yul\":1350:1359   */\n      dup3\n        /* \"#utility.yul\":1346:1364   */\n      add\n        /* \"#utility.yul\":1338:1364   */\n      swap1\n      pop\n        /* \"#utility.yul\":1374:1439   */\n      tag_67\n        /* \"#utility.yul\":1436:1437   */\n      0x00\n        /* \"#utility.yul\":1425:1434   */\n      dup4\n        /* \"#utility.yul\":1421:1438   */\n      add\n        /* \"#utility.yul\":1412:1418   */\n      dup5\n        /* \"#utility.yul\":1374:1439   */\n      tag_45\n      jump\t// in\n    tag_67:\n        /* \"#utility.yul\":1236:1446   */\n      swap3\n      swap2\n      pop\n      pop\n      jump\t// out\n        /* \"#utility.yul\":1452:1570   */\n    tag_46:\n        /* \"#utility.yul\":1539:1563   */\n      tag_69\n        /* \"#utility.yul\":1557:1562   */\n      dup2\n        /* \"#utility.yul\":1539:1563   */\n      tag_41\n      jump\t// in\n    tag_69:\n        /* \"#utility.yul\":1534:1537   */\n      dup3\n        /* \"#utility.yul\":1527:1564   */\n      mstore\n        /* \"#utility.yul\":1452:1570   */\n      pop\n      pop\n      jump\t// out\n        /* \"#utility.yul\":1576:1798   */\n    tag_14:\n        /* \"#utility.yul\":1669:1673   */\n      0x00\n        /* \"#utility.yul\":1707:1709   */\n      0x20\n        /* \"#utility.yul\":1696:1705   */\n      dup3\n        /* \"#utility.yul\":1692:1710   */\n      add\n        /* \"#utility.yul\":1684:1710   */\n      swap1\n      pop\n        /* \"#utility.yul\":1720:1791   */\n      tag_71\n        /* \"#utility.yul\":1788:1789   */\n      0x00\n        /* \"#utility.yul\":1777:1786   */\n      dup4\n        /* \"#utility.yul\":1773:1790   */\n      add\n        /* \"#utility.yul\":1764:1770   */\n      dup5\n        /* \"#utility.yul\":1720:1791   */\n      tag_46\n      jump\t// in\n    tag_71:\n        /* \"#utility.yul\":1576:1798   */\n      swap3\n      swap2\n      pop\n      pop\n      jump\t// out\n        /* \"#utility.yul\":1804:1984   */\n    tag_21:\n        /* \"#utility.yul\":1852:1929   */\n      0x4e487b7100000000000000000000000000000000000000000000000000000000\n        /* \"#utility.yul\":1849:1850   */\n      0x00\n        /* \"#utility.yul\":1842:1930   */\n      mstore\n        /* \"#utility.yul\":1949:1953   */\n      0x32\n        /* \"#utility.yul\":1946:1947   */\n      0x04\n        /* \"#utility.yul\":1939:1954   */\n      mstore\n        /* \"#utility.yul\":1973:1977   */\n      0x24\n        /* \"#utility.yul\":1970:1971   */\n      0x00\n        /* \"#utility.yul\":1963:1978   */\n      revert\n        /* \"#utility.yul\":1990:2170   */\n    tag_47:\n        /* \"#utility.yul\":2038:2115   */\n      0x4e487b7100000000000000000000000000000000000000000000000000000000\n        /* \"#utility.yul\":2035:2036   */\n      0x00\n        /* \"#utility.yul\":2028:2116   */\n      mstore\n        /* \"#utility.yul\":2135:2139   */\n      0x11\n        /* \"#utility.yul\":2132:2133   */\n      0x04\n        /* \"#utility.yul\":2125:2140   */\n      mstore\n        /* \"#utility.yul\":2159:2163   */\n      0x24\n        /* \"#utility.yul\":2156:2157   */\n      0x00\n        /* \"#utility.yul\":2149:2164   */\n      revert\n        /* \"#utility.yul\":2176:2409   */\n    tag_25:\n        /* \"#utility.yul\":2215:2218   */\n      0x00\n        /* \"#utility.yul\":2238:2262   */\n      tag_75\n        /* \"#utility.yul\":2256:2261   */\n      dup3\n        /* \"#utility.yul\":2238:2262   */\n      tag_41\n      jump\t// in\n    tag_75:\n        /* \"#utility.yul\":2229:2262   */\n      swap2\n      pop\n        /* \"#utility.yul\":2284:2350   */\n      0xffffffffffffffffffffffffffffffffffffffffffffffffffffffffffffffff\n        /* \"#utility.yul\":2277:2282   */\n      dup3\n        /* \"#utility.yul\":2274:2351   */\n      sub\n        /* \"#utility.yul\":2271:2374   */\n      tag_76\n      jumpi\n        /* \"#utility.yul\":2354:2372   */\n      tag_77\n      tag_47\n      jump\t// in\n    tag_77:\n        /* \"#utility.yul\":2271:2374   */\n    tag_76:\n        /* \"#utility.yul\":2401:2402   */\n      0x01\n        /* \"#utility.yul\":2394:2399   */\n      dup3\n        /* \"#utility.yul\":2390:2403   */\n      add\n        /* \"#utility.yul\":2383:2403   */\n      swap1\n      pop\n        /* \"#utility.yul\":2176:2409   */\n      swap2\n      swap1\n      pop\n      jump\t// out\n        /* \"#utility.yul\":2415:2595   */\n    tag_48:\n        /* \"#utility.yul\":2463:2540   */\n      0x4e487b7100000000000000000000000000000000000000000000000000000000\n        /* \"#utility.yul\":2460:2461   */\n      0x00\n        /* \"#utility.yul\":2453:2541   */\n      mstore\n        /* \"#utility.yul\":2560:2564   */\n      0x12\n        /* \"#utility.yul\":2557:2558   */\n      0x04\n        /* \"#utility.yul\":2550:2565   */\n      mstore\n        /* \"#utility.yul\":2584:2588   */\n      0x24\n        /* \"#utility.yul\":2581:2582   */\n      0x00\n        /* \"#utility.yul\":2574:2589   */\n      revert\n        /* \"#utility.yul\":2601:2777   */\n    tag_34:\n        /* \"#utility.yul\":2633:2634   */\n      0x00\n        /* \"#utility.yul\":2650:2670   */\n      tag_80\n        /* \"#utility.yul\":2668:2669   */\n      dup3\n        /* \"#utility.yul\":2650:2670   */\n      tag_41\n      jump\t// in\n    tag_80:\n        /* \"#utility.yul\":2645:2670   */\n      swap2\n      pop\n        /* \"#utility.yul\":2684:2704   */\n      tag_81\n        /* \"#utility.yul\":2702:2703   */\n      dup4\n        /* \"#utility.yul\":2684:2704   */\n      tag_41\n      jump\t// in\n    tag_81:\n        /* \"#utility.yul\":2679:2704   */\n      swap3\n      pop\n        /* \"#utility.yul\":2723:2724   */\n      dup3\n        /* \"#utility.yul\":2713:2748   */\n      tag_82\n      jumpi\n        /* \"#utility.yul\":2728:2746   */\n      tag_83\n      tag_48\n      jump\t// in\n    tag_83:\n        /* \"#utility.yul\":2713:2748   */\n    tag_82:\n        /* \"#utility.yul\":2769:2770   */\n      dup3\n        /* \"#utility.yul\":2766:2767   */\n      dup3\n        /* \"#utility.yul\":2762:2771   */\n      mod\n        /* \"#utility.yul\":2757:2771   */\n      swap1\n      pop\n        /* \"#utility.yul\":2601:2777   */\n      swap3\n      swap2\n      pop\n      pop\n      jump\t// out\n\n    auxdata: 0xa2646970667358221220c535c9a24406503f7a224174893c00306bcd532e444410dcbd64c5089fa8344564736f6c63430008120033\n}\n",
				"bytecode": {
					"linkReferences": {},
					"object": "6080604052604051806102800160405280600160ff168152602001600260ff168152602001600360ff168152602001600460ff168152602001600560ff168152602001600660ff168152602001600760ff168152602001600860ff168152602001600960ff168152602001600a60ff168152602001600b60ff168152602001600c60ff168152602001600d60ff168152602001600e60ff168152602001600f60ff168152602001601060ff168152602001601160ff168152602001601260ff168152602001601360ff168152602001601460ff1681525060009060146100e692919061013b565b506040518060800160405280600160ff168152602001600460ff168152602001602260ff168152602001603860ff16815250600190600461012892919061018d565b5034801561013557600080fd5b506101fc565b82805482825590600052602060002090810192821561017c579160200282015b8281111561017b578251829060ff1690559160200191906001019061015b565b5b50905061018991906101df565b5090565b8280548282559060005260206000209081019282156101ce579160200282015b828111156101cd578251829060ff169055916020019190600101906101ad565b5b5090506101db91906101df565b5090565b5b808211156101f85760008160009055506001016101e0565b5090565b61035e8061020b6000396000f3fe608060405234801561001057600080fd5b50600436106100365760003560e01c8063dc5dd8671461003b578063ed25cf751461006b575b600080fd5b61005560048036038101906100509190610195565b610089565b60405161006291906101dd565b60405180910390f35b6100736100e7565b6040516100809190610207565b60405180910390f35b6000806000905060005b6001805490508110156100dd5783600182815481106100b5576100b4610222565b5b9060005260206000200154036100ca57600191505b80806100d590610280565b915050610093565b5080915050919050565b6000806000905060005b60008054905081101561015257600060026000838154811061011657610115610222565b5b906000526020600020015461012b91906102f7565b0361013f57818061013b90610280565b9250505b808061014a90610280565b9150506100f1565b508091505090565b600080fd5b6000819050919050565b6101728161015f565b811461017d57600080fd5b50565b60008135905061018f81610169565b92915050565b6000602082840312156101ab576101aa61015a565b5b60006101b984828501610180565b91505092915050565b60008115159050919050565b6101d7816101c2565b82525050565b60006020820190506101f260008301846101ce565b92915050565b6102018161015f565b82525050565b600060208201905061021c60008301846101f8565b92915050565b7f4e487b7100000000000000000000000000000000000000000000000000000000600052603260045260246000fd5b7f4e487b7100000000000000000000000000000000000000000000000000000000600052601160045260246000fd5b600061028b8261015f565b91507fffffffffffffffffffffffffffffffffffffffffffffffffffffffffffffffff82036102bd576102bc610251565b5b600182019050919050565b7f4e487b7100000000000000000000000000000000000000000000000000000000600052601260045260246000fd5b60006103028261015f565b915061030d8361015f565b92508261031d5761031c6102c8565b5b82820690509291505056fea2646970667358221220c535c9a24406503f7a224174893c00306bcd532e444410dcbd64c5089fa8344564736f6c63430008120033",
					"opcodes": "PUSH1 0x80 PUSH1 0x40 MSTORE PUSH1 0x40 MLOAD DUP1 PUSH2 0x280 ADD PUSH1 0x40 MSTORE DUP1 PUSH1 0x1 PUSH1 0xFF AND DUP2 MSTORE PUSH1 0x20 ADD PUSH1 0x2 PUSH1 0xFF AND DUP2 MSTORE PUSH1 0x20 ADD PUSH1 0x3 PUSH1 0xFF AND DUP2 MSTORE PUSH1 0x20 ADD PUSH1 0x4 PUSH1 0xFF AND DUP2 MSTORE PUSH1 0x20 ADD PUSH1 0x5 PUSH1 0xFF AND DUP2 MSTORE PUSH1 0x20 ADD PUSH1 0x6 PUSH1 0xFF AND DUP2 MSTORE PUSH1 0x20 ADD PUSH1 0x7 PUSH1 0xFF AND DUP2 MSTORE PUSH1 0x20 ADD PUSH1 0x8 PUSH1 0xFF AND DUP2 MSTORE PUSH1 0x20 ADD PUSH1 0x9 PUSH1 0xFF AND DUP2 MSTORE PUSH1 0x20 ADD PUSH1 0xA PUSH1 0xFF AND DUP2 MSTORE PUSH1 0x20 ADD PUSH1 0xB PUSH1 0xFF AND DUP2 MSTORE PUSH1 0x20 ADD PUSH1 0xC PUSH1 0xFF AND DUP2 MSTORE PUSH1 0x20 ADD PUSH1 0xD PUSH1 0xFF AND DUP2 MSTORE PUSH1 0x20 ADD PUSH1 0xE PUSH1 0xFF AND DUP2 MSTORE PUSH1 0x20 ADD PUSH1 0xF PUSH1 0xFF AND DUP2 MSTORE PUSH1 0x20 ADD PUSH1 0x10 PUSH1 0xFF AND DUP2 MSTORE PUSH1 0x20 ADD PUSH1 0x11 PUSH1 0xFF AND DUP2 MSTORE PUSH1 0x20 ADD PUSH1 0x12 PUSH1 0xFF AND DUP2 MSTORE PUSH1 0x20 ADD PUSH1 0x13 PUSH1 0xFF AND DUP2 MSTORE PUSH1 0x20 ADD PUSH1 0x14 PUSH1 0xFF AND DUP2 MSTORE POP PUSH1 0x0 SWAP1 PUSH1 0x14 PUSH2 0xE6 SWAP3 SWAP2 SWAP1 PUSH2 0x13B JUMP JUMPDEST POP PUSH1 0x40 MLOAD DUP1 PUSH1 0x80 ADD PUSH1 0x40 MSTORE DUP1 PUSH1 0x1 PUSH1 0xFF AND DUP2 MSTORE PUSH1 0x20 ADD PUSH1 0x4 PUSH1 0xFF AND DUP2 MSTORE PUSH1 0x20 ADD PUSH1 0x22 PUSH1 0xFF AND DUP2 MSTORE PUSH1 0x20 ADD PUSH1 0x38 PUSH1 0xFF AND DUP2 MSTORE POP PUSH1 0x1 SWAP1 PUSH1 0x4 PUSH2 0x128 SWAP3 SWAP2 SWAP1 PUSH2 0x18D JUMP JUMPDEST POP CALLVALUE DUP1 ISZERO PUSH2 0x135 JUMPI PUSH1 0x0 DUP1 REVERT JUMPDEST POP PUSH2 0x1FC JUMP JUMPDEST DUP3 DUP1 SLOAD DUP3 DUP3 SSTORE SWAP1 PUSH1 0x0 MSTORE PUSH1 0x20 PUSH1 0x0 KECCAK256 SWAP1 DUP2 ADD SWAP3 DUP3 ISZERO PUSH2 0x17C JUMPI SWAP2 PUSH1 0x20 MUL DUP3 ADD JUMPDEST DUP3 DUP2 GT ISZERO PUSH2 0x17B JUMPI DUP3 MLOAD DUP3 SWAP1 PUSH1 0xFF AND SWAP1 SSTORE SWAP2 PUSH1 0x20 ADD SWAP2 SWAP1 PUSH1 0x1 ADD SWAP1 PUSH2 0x15B JUMP JUMPDEST JUMPDEST POP SWAP1 POP PUSH2 0x189 SWAP2 SWAP1 PUSH2 0x1DF JUMP JUMPDEST POP SWAP1 JUMP JUMPDEST DUP3 DUP1 SLOAD DUP3 DUP3 SSTORE SWAP1 PUSH1 0x0 MSTORE PUSH1 0x20 PUSH1 0x0 KECCAK256 SWAP1 DUP2 ADD SWAP3 DUP3 ISZERO PUSH2 0x1CE JUMPI SWAP2 PUSH1 0x20 MUL DUP3 ADD JUMPDEST DUP3 DUP2 GT ISZERO PUSH2 0x1CD JUMPI DUP3 MLOAD DUP3 SWAP1 PUSH1 0xFF AND SWAP1 SSTORE SWAP2 PUSH1 0x20 ADD SWAP2 SWAP1 PUSH1 0x1 ADD SWAP1 PUSH2 0x1AD JUMP JUMPDEST JUMPDEST POP SWAP1 POP PUSH2 0x1DB SWAP2 SWAP1 PUSH2 0x1DF JUMP JUMPDEST POP SWAP1 JUMP JUMPDEST JUMPDEST DUP1 DUP3 GT ISZERO PUSH2 0x1F8 JUMPI PUSH1 0x0 DUP2 PUSH1 0x0 SWAP1 SSTORE POP PUSH1 0x1 ADD PUSH2 0x1E0 JUMP JUMPDEST POP SWAP1 JUMP JUMPDEST PUSH2 0x35E DUP1 PUSH2 0x20B PUSH1 0x0 CODECOPY PUSH1 0x0 RETURN INVALID PUSH1 0x80 PUSH1 0x40 MSTORE CALLVALUE DUP1 ISZERO PUSH2 0x10 JUMPI PUSH1 0x0 DUP1 REVERT JUMPDEST POP PUSH1 0x4 CALLDATASIZE LT PUSH2 0x36 JUMPI PUSH1 0x0 CALLDATALOAD PUSH1 0xE0 SHR DUP1 PUSH4 0xDC5DD867 EQ PUSH2 0x3B JUMPI DUP1 PUSH4 0xED25CF75 EQ PUSH2 0x6B JUMPI JUMPDEST PUSH1 0x0 DUP1 REVERT JUMPDEST PUSH2 0x55 PUSH1 0x4 DUP1 CALLDATASIZE SUB DUP2 ADD SWAP1 PUSH2 0x50 SWAP2 SWAP1 PUSH2 0x195 JUMP JUMPDEST PUSH2 0x89 JUMP JUMPDEST PUSH1 0x40 MLOAD PUSH2 0x62 SWAP2 SWAP1 PUSH2 0x1DD JUMP JUMPDEST PUSH1 0x40 MLOAD DUP1 SWAP2 SUB SWAP1 RETURN JUMPDEST PUSH2 0x73 PUSH2 0xE7 JUMP JUMPDEST PUSH1 0x40 MLOAD PUSH2 0x80 SWAP2 SWAP1 PUSH2 0x207 JUMP JUMPDEST PUSH1 0x40 MLOAD DUP1 SWAP2 SUB SWAP1 RETURN JUMPDEST PUSH1 0x0 DUP1 PUSH1 0x0 SWAP1 POP PUSH1 0x0 JUMPDEST PUSH1 0x1 DUP1 SLOAD SWAP1 POP DUP2 LT ISZERO PUSH2 0xDD JUMPI DUP4 PUSH1 0x1 DUP3 DUP2 SLOAD DUP2 LT PUSH2 0xB5 JUMPI PUSH2 0xB4 PUSH2 0x222 JUMP JUMPDEST JUMPDEST SWAP1 PUSH1 0x0 MSTORE PUSH1 0x20 PUSH1 0x0 KECCAK256 ADD SLOAD SUB PUSH2 0xCA JUMPI PUSH1 0x1 SWAP2 POP JUMPDEST DUP1 DUP1 PUSH2 0xD5 SWAP1 PUSH2 0x280 JUMP JUMPDEST SWAP2 POP POP PUSH2 0x93 JUMP JUMPDEST POP DUP1 SWAP2 POP POP SWAP2 SWAP1 POP JUMP JUMPDEST PUSH1 0x0 DUP1 PUSH1 0x0 SWAP1 POP PUSH1 0x0 JUMPDEST PUSH1 0x0 DUP1 SLOAD SWAP1 POP DUP2 LT ISZERO PUSH2 0x152 JUMPI PUSH1 0x0 PUSH1 0x2 PUSH1 0x0 DUP4 DUP2 SLOAD DUP2 LT PUSH2 0x116 JUMPI PUSH2 0x115 PUSH2 0x222 JUMP JUMPDEST JUMPDEST SWAP1 PUSH1 0x0 MSTORE PUSH1 0x20 PUSH1 0x0 KECCAK256 ADD SLOAD PUSH2 0x12B SWAP2 SWAP1 PUSH2 0x2F7 JUMP JUMPDEST SUB PUSH2 0x13F JUMPI DUP2 DUP1 PUSH2 0x13B SWAP1 PUSH2 0x280 JUMP JUMPDEST SWAP3 POP POP JUMPDEST DUP1 DUP1 PUSH2 0x14A SWAP1 PUSH2 0x280 JUMP JUMPDEST SWAP2 POP POP PUSH2 0xF1 JUMP JUMPDEST POP DUP1 SWAP2 POP POP SWAP1 JUMP JUMPDEST PUSH1 0x0 DUP1 REVERT JUMPDEST PUSH1 0x0 DUP2 SWAP1 POP SWAP2 SWAP1 POP JUMP JUMPDEST PUSH2 0x172 DUP2 PUSH2 0x15F JUMP JUMPDEST DUP2 EQ PUSH2 0x17D JUMPI PUSH1 0x0 DUP1 REVERT JUMPDEST POP JUMP JUMPDEST PUSH1 0x0 DUP2 CALLDATALOAD SWAP1 POP PUSH2 0x18F DUP2 PUSH2 0x169 JUMP JUMPDEST SWAP3 SWAP2 POP POP JUMP JUMPDEST PUSH1 0x0 PUSH1 0x20 DUP3 DUP5 SUB SLT ISZERO PUSH2 0x1AB JUMPI PUSH2 0x1AA PUSH2 0x15A JUMP JUMPDEST JUMPDEST PUSH1 0x0 PUSH2 0x1B9 DUP5 DUP3 DUP6 ADD PUSH2 0x180 JUMP JUMPDEST SWAP2 POP POP SWAP3 SWAP2 POP POP JUMP JUMPDEST PUSH1 0x0 DUP2 ISZERO ISZERO SWAP1 POP SWAP2 SWAP1 POP JUMP JUMPDEST PUSH2 0x1D7 DUP2 PUSH2 0x1C2 JUMP JUMPDEST DUP3 MSTORE POP POP JUMP JUMPDEST PUSH1 0x0 PUSH1 0x20 DUP3 ADD SWAP1 POP PUSH2 0x1F2 PUSH1 0x0 DUP4 ADD DUP5 PUSH2 0x1CE JUMP JUMPDEST SWAP3 SWAP2 POP POP JUMP JUMPDEST PUSH2 0x201 DUP2 PUSH2 0x15F JUMP JUMPDEST DUP3 MSTORE POP POP JUMP JUMPDEST PUSH1 0x0 PUSH1 0x20 DUP3 ADD SWAP1 POP PUSH2 0x21C PUSH1 0x0 DUP4 ADD DUP5 PUSH2 0x1F8 JUMP JUMPDEST SWAP3 SWAP2 POP POP JUMP JUMPDEST PUSH32 0x4E487B7100000000000000000000000000000000000000000000000000000000 PUSH1 0x0 MSTORE PUSH1 0x32 PUSH1 0x4 MSTORE PUSH1 0x24 PUSH1 0x0 REVERT JUMPDEST PUSH32 0x4E487B7100000000000000000000000000000000000000000000000000000000 PUSH1 0x0 MSTORE PUSH1 0x11 PUSH1 0x4 MSTORE PUSH1 0x24 PUSH1 0x0 REVERT JUMPDEST PUSH1 0x0 PUSH2 0x28B DUP3 PUSH2 0x15F JUMP JUMPDEST SWAP2 POP PUSH32 0xFFFFFFFFFFFFFFFFFFFFFFFFFFFFFFFFFFFFFFFFFFFFFFFFFFFFFFFFFFFFFFFF DUP3 SUB PUSH2 0x2BD JUMPI PUSH2 0x2BC PUSH2 0x251 JUMP JUMPDEST JUMPDEST PUSH1 0x1 DUP3 ADD SWAP1 POP SWAP2 SWAP1 POP JUMP JUMPDEST PUSH32 0x4E487B7100000000000000000000000000000000000000000000000000000000 PUSH1 0x0 MSTORE PUSH1 0x12 PUSH1 0x4 MSTORE PUSH1 0x24 PUSH1 0x0 REVERT JUMPDEST PUSH1 0x0 PUSH2 0x302 DUP3 PUSH2 0x15F JUMP JUMPDEST SWAP2 POP PUSH2 0x30D DUP4 PUSH2 0x15F JUMP JUMPDEST SWAP3 POP DUP3 PUSH2 0x31D JUMPI PUSH2 0x31C PUSH2 0x2C8 JUMP JUMPDEST JUMPDEST DUP3 DUP3 MOD SWAP1 POP SWAP3 SWAP2 POP POP JUMP INVALID LOG2 PUSH5 0x6970667358 0x22 SLT KECCAK256 0xC5 CALLDATALOAD 0xC9 LOG2 PREVRANDAO MOD POP EXTCODEHASH PUSH27 0x224174893C00306BCD532E444410DCBD64C5089FA8344564736F6C PUSH4 0x43000812 STOP CALLER "
				},
				"gasEstimates": {
					"creation": {
						"codeDepositCost": "172400",
						"executionCost": "infinite",
						"totalCost": "infinite"
					},
					"external": {
						"evenNumbersLoop()": "infinite",
						"numberListLoop(uint256)": "infinite"
					}
				},
				"methodIdentifiers": {
					"evenNumbersLoop()": "ed25cf75",
					"numberListLoop(uint256)": "dc5dd867"
				}
			},
			"storageLayout": {
				"storage": [
					{
						"astId": 25,
						"contract": "loop.sol:myLoopingContract",
						"label": "longlist",
						"offset": 0,
						"slot": "0",
						"type": "t_array(t_uint256)dyn_storage"
					},
					{
						"astId": 33,
						"contract": "loop.sol:myLoopingContract",
						"label": "numbersList",
						"offset": 0,
						"slot": "1",
						"type": "t_array(t_uint256)dyn_storage"
					}
				],
				"types": {
					"t_array(t_uint256)dyn_storage": {
						"base": "t_uint256",
						"encoding": "dynamic_array",
						"label": "uint256[]",
						"numberOfBytes": "32"
					},
					"t_uint256": {
						"encoding": "inplace",
						"label": "uint256",
						"numberOfBytes": "32"
					}
				}
			},
			"userdoc": {
				"kind": "user",
				"methods": {},
				"version": 1
			}
		}
	}
}