{
	"logicaloperator.sol": {
		"logicaloperator": {
			"abi": [
				{
					"inputs": [],
					"name": "logic",
					"outputs": [
						{
							"internalType": "uint256",
							"name": "",
							"type": "uint256"
						}
					],
					"stateMutability": "view",
					"type": "function"
				}
			],
			"devdoc": {
				"kind": "dev",
				"methods": {},
				"version": 1
			},
			"evm": {
				"assembly": "    /* \"logicaloperator.sol\":36:279  contract logicaloperator {... */\n  mstore(0x40, 0x80)\n    /* \"logicaloperator.sol\":78:79  4 */\n  0x04\n    /* \"logicaloperator.sol\":70:79  uint a= 4 */\n  0x00\n  sstore\n    /* \"logicaloperator.sol\":94:95  5 */\n  0x05\n    /* \"logicaloperator.sol\":86:95  uint b= 5 */\n  0x01\n  sstore\n    /* \"logicaloperator.sol\":36:279  contract logicaloperator {... */\n  callvalue\n  dup1\n  iszero\n  tag_1\n  jumpi\n  0x00\n  dup1\n  revert\ntag_1:\n  pop\n  dataSize(sub_0)\n  dup1\n  dataOffset(sub_0)\n  0x00\n  codecopy\n  0x00\n  return\nstop\n\nsub_0: assembly {\n        /* \"logicaloperator.sol\":36:279  contract logicaloperator {... */\n      mstore(0x40, 0x80)\n      callvalue\n      dup1\n      iszero\n      tag_1\n      jumpi\n      0x00\n      dup1\n      revert\n    tag_1:\n      pop\n      jumpi(tag_2, lt(calldatasize, 0x04))\n      shr(0xe0, calldataload(0x00))\n      dup1\n      0xd7dfa0dd\n      eq\n      tag_3\n      jumpi\n    tag_2:\n      0x00\n      dup1\n      revert\n        /* \"logicaloperator.sol\":104:276  function logic() view public returns (uint) {... */\n    tag_3:\n      tag_4\n      tag_5\n      jump\t// in\n    tag_4:\n      mload(0x40)\n      tag_6\n      swap2\n      swap1\n      tag_7\n      jump\t// in\n    tag_6:\n      mload(0x40)\n      dup1\n      swap2\n      sub\n      swap1\n      return\n    tag_5:\n        /* \"logicaloperator.sol\":142:146  uint */\n      0x00\n        /* \"logicaloperator.sol\":159:170  uint result */\n      dup1\n        /* \"logicaloperator.sol\":172:173  0 */\n      0x00\n        /* \"logicaloperator.sol\":159:173  uint result =0 */\n      swap1\n      pop\n        /* \"logicaloperator.sol\":191:192  b */\n      sload(0x01)\n        /* \"logicaloperator.sol\":187:188  a */\n      sload(0x00)\n        /* \"logicaloperator.sol\":187:192  a < b */\n      lt\n        /* \"logicaloperator.sol\":187:202  a < b || a == 5 */\n      dup1\n      tag_9\n      jumpi\n      pop\n        /* \"logicaloperator.sol\":201:202  5 */\n      0x05\n        /* \"logicaloperator.sol\":196:197  a */\n      sload(0x00)\n        /* \"logicaloperator.sol\":196:202  a == 5 */\n      eq\n        /* \"logicaloperator.sol\":187:202  a < b || a == 5 */\n    tag_9:\n        /* \"logicaloperator.sol\":184:245  if(a < b || a == 5) {... */\n      iszero\n      tag_10\n      jumpi\n        /* \"logicaloperator.sol\":232:233  b */\n      sload(0x01)\n        /* \"logicaloperator.sol\":228:229  a */\n      sload(0x00)\n        /* \"logicaloperator.sol\":228:233  a + b */\n      tag_11\n      swap2\n      swap1\n      tag_12\n      jump\t// in\n    tag_11:\n        /* \"logicaloperator.sol\":219:233  result = a + b */\n      swap1\n      pop\n        /* \"logicaloperator.sol\":184:245  if(a < b || a == 5) {... */\n    tag_10:\n        /* \"logicaloperator.sol\":262:268  result */\n      dup1\n        /* \"logicaloperator.sol\":255:268  return result */\n      swap2\n      pop\n      pop\n        /* \"logicaloperator.sol\":104:276  function logic() view public returns (uint) {... */\n      swap1\n      jump\t// out\n        /* \"#utility.yul\":7:84   */\n    tag_13:\n        /* \"#utility.yul\":44:51   */\n      0x00\n        /* \"#utility.yul\":73:78   */\n      dup2\n        /* \"#utility.yul\":62:78   */\n      swap1\n      pop\n        /* \"#utility.yul\":7:84   */\n      swap2\n      swap1\n      pop\n      jump\t// out\n        /* \"#utility.yul\":90:208   */\n    tag_14:\n        /* \"#utility.yul\":177:201   */\n      tag_19\n        /* \"#utility.yul\":195:200   */\n      dup2\n        /* \"#utility.yul\":177:201   */\n      tag_13\n      jump\t// in\n    tag_19:\n        /* \"#utility.yul\":172:175   */\n      dup3\n        /* \"#utility.yul\":165:202   */\n      mstore\n        /* \"#utility.yul\":90:208   */\n      pop\n      pop\n      jump\t// out\n        /* \"#utility.yul\":214:436   */\n    tag_7:\n        /* \"#utility.yul\":307:311   */\n      0x00\n        /* \"#utility.yul\":345:347   */\n      0x20\n        /* \"#utility.yul\":334:343   */\n      dup3\n        /* \"#utility.yul\":330:348   */\n      add\n        /* \"#utility.yul\":322:348   */\n      swap1\n      pop\n        /* \"#utility.yul\":358:429   */\n      tag_21\n        /* \"#utility.yul\":426:427   */\n      0x00\n        /* \"#utility.yul\":415:424   */\n      dup4\n        /* \"#utility.yul\":411:428   */\n      add\n        /* \"#utility.yul\":402:408   */\n      dup5\n        /* \"#utility.yul\":358:429   */\n      tag_14\n      jump\t// in\n    tag_21:\n        /* \"#utility.yul\":214:436   */\n      swap3\n      swap2\n      pop\n      pop\n      jump\t// out\n        /* \"#utility.yul\":442:622   */\n    tag_15:\n        /* \"#utility.yul\":490:567   */\n      0x4e487b7100000000000000000000000000000000000000000000000000000000\n        /* \"#utility.yul\":487:488   */\n      0x00\n        /* \"#utility.yul\":480:568   */\n      mstore\n        /* \"#utility.yul\":587:591   */\n      0x11\n        /* \"#utility.yul\":584:585   */\n      0x04\n        /* \"#utility.yul\":577:592   */\n      mstore\n        /* \"#utility.yul\":611:615   */\n      0x24\n        /* \"#utility.yul\":608:609   */\n      0x00\n        /* \"#utility.yul\":601:616   */\n      revert\n        /* \"#utility.yul\":628:819   */\n    tag_12:\n        /* \"#utility.yul\":668:671   */\n      0x00\n        /* \"#utility.yul\":687:707   */\n      tag_24\n        /* \"#utility.yul\":705:706   */\n      dup3\n        /* \"#utility.yul\":687:707   */\n      tag_13\n      jump\t// in\n    tag_24:\n        /* \"#utility.yul\":682:707   */\n      swap2\n      pop\n        /* \"#utility.yul\":721:741   */\n      tag_25\n        /* \"#utility.yul\":739:740   */\n      dup4\n        /* \"#utility.yul\":721:741   */\n      tag_13\n      jump\t// in\n    tag_25:\n        /* \"#utility.yul\":716:741   */\n      swap3\n      pop\n        /* \"#utility.yul\":764:765   */\n      dup3\n        /* \"#utility.yul\":761:762   */\n      dup3\n        /* \"#utility.yul\":757:766   */\n      add\n        /* \"#utility.yul\":750:766   */\n      swap1\n      pop\n        /* \"#utility.yul\":785:788   */\n      dup1\n        /* \"#utility.yul\":782:783   */\n      dup3\n        /* \"#utility.yul\":779:789   */\n      gt\n        /* \"#utility.yul\":776:812   */\n      iszero\n      tag_26\n      jumpi\n        /* \"#utility.yul\":792:810   */\n      tag_27\n      tag_15\n      jump\t// in\n    tag_27:\n        /* \"#utility.yul\":776:812   */\n    tag_26:\n        /* \"#utility.yul\":628:819   */\n      swap3\n      swap2\n      pop\n      pop\n      jump\t// out\n\n    auxdata: 0xa26469706673582212209474ca343f04ab1d3f21025302414530482773d0c15a2ceb41cfc51fa0440d9264736f6c63430008120033\n}\n",
				"bytecode": {
					"linkReferences": {},
					"object": "60806040526004600055600560015534801561001a57600080fd5b506101558061002a6000396000f3fe608060405234801561001057600080fd5b506004361061002b5760003560e01c8063d7dfa0dd14610030575b600080fd5b61003861004e565b60405161004591906100a1565b60405180910390f35b60008060009050600154600054108061006957506005600054145b156100815760015460005461007e91906100eb565b90505b8091505090565b6000819050919050565b61009b81610088565b82525050565b60006020820190506100b66000830184610092565b92915050565b7f4e487b7100000000000000000000000000000000000000000000000000000000600052601160045260246000fd5b60006100f682610088565b915061010183610088565b9250828201905080821115610119576101186100bc565b5b9291505056fea26469706673582212209474ca343f04ab1d3f21025302414530482773d0c15a2ceb41cfc51fa0440d9264736f6c63430008120033",
					"opcodes": "PUSH1 0x80 PUSH1 0x40 MSTORE PUSH1 0x4 PUSH1 0x0 SSTORE PUSH1 0x5 PUSH1 0x1 SSTORE CALLVALUE DUP1 ISZERO PUSH2 0x1A JUMPI PUSH1 0x0 DUP1 REVERT JUMPDEST POP PUSH2 0x155 DUP1 PUSH2 0x2A PUSH1 0x0 CODECOPY PUSH1 0x0 RETURN INVALID PUSH1 0x80 PUSH1 0x40 MSTORE CALLVALUE DUP1 ISZERO PUSH2 0x10 JUMPI PUSH1 0x0 DUP1 REVERT JUMPDEST POP PUSH1 0x4 CALLDATASIZE LT PUSH2 0x2B JUMPI PUSH1 0x0 CALLDATALOAD PUSH1 0xE0 SHR DUP1 PUSH4 0xD7DFA0DD EQ PUSH2 0x30 JUMPI JUMPDEST PUSH1 0x0 DUP1 REVERT JUMPDEST PUSH2 0x38 PUSH2 0x4E JUMP JUMPDEST PUSH1 0x40 MLOAD PUSH2 0x45 SWAP2 SWAP1 PUSH2 0xA1 JUMP JUMPDEST PUSH1 0x40 MLOAD DUP1 SWAP2 SUB SWAP1 RETURN JUMPDEST PUSH1 0x0 DUP1 PUSH1 0x0 SWAP1 POP PUSH1 0x1 SLOAD PUSH1 0x0 SLOAD LT DUP1 PUSH2 0x69 JUMPI POP PUSH1 0x5 PUSH1 0x0 SLOAD EQ JUMPDEST ISZERO PUSH2 0x81 JUMPI PUSH1 0x1 SLOAD PUSH1 0x0 SLOAD PUSH2 0x7E SWAP2 SWAP1 PUSH2 0xEB JUMP JUMPDEST SWAP1 POP JUMPDEST DUP1 SWAP2 POP POP SWAP1 JUMP JUMPDEST PUSH1 0x0 DUP2 SWAP1 POP SWAP2 SWAP1 POP JUMP JUMPDEST PUSH2 0x9B DUP2 PUSH2 0x88 JUMP JUMPDEST DUP3 MSTORE POP POP JUMP JUMPDEST PUSH1 0x0 PUSH1 0x20 DUP3 ADD SWAP1 POP PUSH2 0xB6 PUSH1 0x0 DUP4 ADD DUP5 PUSH2 0x92 JUMP JUMPDEST SWAP3 SWAP2 POP POP JUMP JUMPDEST PUSH32 0x4E487B7100000000000000000000000000000000000000000000000000000000 PUSH1 0x0 MSTORE PUSH1 0x11 PUSH1 0x4 MSTORE PUSH1 0x24 PUSH1 0x0 REVERT JUMPDEST PUSH1 0x0 PUSH2 0xF6 DUP3 PUSH2 0x88 JUMP JUMPDEST SWAP2 POP PUSH2 0x101 DUP4 PUSH2 0x88 JUMP JUMPDEST SWAP3 POP DUP3 DUP3 ADD SWAP1 POP DUP1 DUP3 GT ISZERO PUSH2 0x119 JUMPI PUSH2 0x118 PUSH2 0xBC JUMP JUMPDEST JUMPDEST SWAP3 SWAP2 POP POP JUMP INVALID LOG2 PUSH5 0x6970667358 0x22 SLT KECCAK256 SWAP5 PUSH21 0xCA343F04AB1D3F21025302414530482773D0C15A2C 0xEB COINBASE 0xCF 0xC5 0x1F LOG0 PREVRANDAO 0xD SWAP3 PUSH5 0x736F6C6343 STOP ADDMOD SLT STOP CALLER "
				},
				"gasEstimates": {
					"creation": {
						"codeDepositCost": "68200",
						"executionCost": "44329",
						"totalCost": "112529"
					},
					"external": {
						"logic()": "infinite"
					}
				},
				"methodIdentifiers": {
					"logic()": "d7dfa0dd"
				}
			},
			"storageLayout": {
				"storage": [
					{
						"astId": 4,
						"contract": "logicaloperator.sol:logicaloperator",
						"label": "a",
						"offset": 0,
						"slot": "0",
						"type": "t_uint256"
					},
					{
						"astId": 7,
						"contract": "logicaloperator.sol:logicaloperator",
						"label": "b",
						"offset": 0,
						"slot": "1",
						"type": "t_uint256"
					}
				],
				"types": {
					"t_uint256": {
						"encoding": "inplace",
						"label": "uint256",
						"numberOfBytes": "32"
					}
				}
			},
			"userdoc": {
				"kind": "user",
				"methods": {},
				"version": 1
			}
		}
	}
}