{
	"learnetherunits.sol": {
		"learnEtherUnits": {
			"abi": [
				{
					"inputs": [],
					"name": "exercise",
					"outputs": [],
					"stateMutability": "nonpayable",
					"type": "function"
				},
				{
					"inputs": [],
					"name": "test",
					"outputs": [],
					"stateMutability": "nonpayable",
					"type": "function"
				}
			],
			"devdoc": {
				"kind": "dev",
				"methods": {},
				"version": 1
			},
			"evm": {
				"assembly": "    /* \"learnetherunits.sol\":28:473  contract learnEtherUnits {... */\n  mstore(0x40, 0x80)\n  callvalue\n  dup1\n  iszero\n  tag_1\n  jumpi\n  0x00\n  dup1\n  revert\ntag_1:\n  pop\n  dataSize(sub_0)\n  dup1\n  dataOffset(sub_0)\n  0x00\n  codecopy\n  0x00\n  return\nstop\n\nsub_0: assembly {\n        /* \"learnetherunits.sol\":28:473  contract learnEtherUnits {... */\n      mstore(0x40, 0x80)\n      callvalue\n      dup1\n      iszero\n      tag_1\n      jumpi\n      0x00\n      dup1\n      revert\n    tag_1:\n      pop\n      jumpi(tag_2, lt(calldatasize, 0x04))\n      shr(0xe0, calldataload(0x00))\n      dup1\n      0xd32cb0fe\n      eq\n      tag_3\n      jumpi\n      dup1\n      0xf8a8fd6d\n      eq\n      tag_4\n      jumpi\n    tag_2:\n      0x00\n      dup1\n      revert\n        /* \"learnetherunits.sol\":270:469  function exercise() public {... */\n    tag_3:\n      tag_5\n      tag_6\n      jump\t// in\n    tag_5:\n      stop\n        /* \"learnetherunits.sol\":62:264  function test() public {... */\n    tag_4:\n      tag_7\n      tag_8\n      jump\t// in\n    tag_7:\n      stop\n        /* \"learnetherunits.sol\":270:469  function exercise() public {... */\n    tag_6:\n        /* \"learnetherunits.sol\":331:341  60 seconds */\n      0x3c\n        /* \"learnetherunits.sol\":318:327  1 minutes */\n      dup1\n        /* \"learnetherunits.sol\":318:341  1 minutes == 60 seconds */\n      eq\n        /* \"learnetherunits.sol\":310:342  assert (1 minutes == 60 seconds) */\n      tag_10\n      jumpi\n      tag_11\n      tag_12\n      jump\t// in\n    tag_11:\n    tag_10:\n        /* \"learnetherunits.sol\":373:385  1440 minutes */\n      0x015180\n        /* \"learnetherunits.sol\":361:369  24 hours */\n      dup1\n        /* \"learnetherunits.sol\":361:385  24 hours == 1440 minutes */\n      eq\n        /* \"learnetherunits.sol\":353:386  assert (24 hours == 1440 minutes) */\n      tag_13\n      jumpi\n      tag_14\n      tag_12\n      jump\t// in\n    tag_14:\n    tag_13:\n        /* \"learnetherunits.sol\":415:423  24 hours */\n      0x015180\n        /* \"learnetherunits.sol\":405:411  1 days */\n      dup1\n        /* \"learnetherunits.sol\":405:423  1 days == 24 hours */\n      eq\n        /* \"learnetherunits.sol\":397:424  assert (1 days == 24 hours) */\n      tag_15\n      jumpi\n      tag_16\n      tag_12\n      jump\t// in\n    tag_16:\n    tag_15:\n        /* \"learnetherunits.sol\":454:460  7 days */\n      0x093a80\n        /* \"learnetherunits.sol\":443:450  1 weeks */\n      dup1\n        /* \"learnetherunits.sol\":443:460  1 weeks == 7 days */\n      eq\n        /* \"learnetherunits.sol\":435:461  assert (1 weeks == 7 days) */\n      tag_17\n      jumpi\n      tag_18\n      tag_12\n      jump\t// in\n    tag_18:\n    tag_17:\n        /* \"learnetherunits.sol\":270:469  function exercise() public {... */\n      jump\t// out\n        /* \"learnetherunits.sol\":62:264  function test() public {... */\n    tag_8:\n        /* \"learnetherunits.sol\":130:137  1 ether */\n      0x0de0b6b3a7640000\n        /* \"learnetherunits.sol\":103:126  1000000000000000000 wei */\n      dup1\n        /* \"learnetherunits.sol\":103:137  1000000000000000000 wei == 1 ether */\n      eq\n        /* \"learnetherunits.sol\":96:138  assert(1000000000000000000 wei == 1 ether) */\n      tag_20\n      jumpi\n      tag_21\n      tag_12\n      jump\t// in\n    tag_21:\n    tag_20:\n        /* \"learnetherunits.sol\":165:166  1 */\n      0x01\n        /* \"learnetherunits.sol\":156:161  1 wei */\n      dup1\n        /* \"learnetherunits.sol\":156:166  1 wei == 1 */\n      eq\n        /* \"learnetherunits.sol\":149:167  assert(1 wei == 1) */\n      tag_22\n      jumpi\n      tag_23\n      tag_12\n      jump\t// in\n    tag_23:\n    tag_22:\n        /* \"learnetherunits.sol\":198:202  1e18 */\n      0x0de0b6b3a7640000\n        /* \"learnetherunits.sol\":187:194  1 ether */\n      dup1\n        /* \"learnetherunits.sol\":187:202  1 ether == 1e18 */\n      eq\n        /* \"learnetherunits.sol\":180:203  assert(1 ether == 1e18) */\n      tag_24\n      jumpi\n      tag_25\n      tag_12\n      jump\t// in\n    tag_25:\n    tag_24:\n        /* \"learnetherunits.sol\":232:255  2000000000000000000 wei */\n      0x1bc16d674ec80000\n        /* \"learnetherunits.sol\":221:228  2 ether */\n      dup1\n        /* \"learnetherunits.sol\":221:255  2 ether == 2000000000000000000 wei */\n      eq\n        /* \"learnetherunits.sol\":214:256  assert(2 ether == 2000000000000000000 wei) */\n      tag_26\n      jumpi\n      tag_27\n      tag_12\n      jump\t// in\n    tag_27:\n    tag_26:\n        /* \"learnetherunits.sol\":62:264  function test() public {... */\n      jump\t// out\n        /* \"#utility.yul\":7:187   */\n    tag_12:\n        /* \"#utility.yul\":55:132   */\n      0x4e487b7100000000000000000000000000000000000000000000000000000000\n        /* \"#utility.yul\":52:53   */\n      0x00\n        /* \"#utility.yul\":45:133   */\n      mstore\n        /* \"#utility.yul\":152:156   */\n      0x01\n        /* \"#utility.yul\":149:150   */\n      0x04\n        /* \"#utility.yul\":142:157   */\n      mstore\n        /* \"#utility.yul\":176:180   */\n      0x24\n        /* \"#utility.yul\":173:174   */\n      0x00\n        /* \"#utility.yul\":166:181   */\n      revert\n\n    auxdata: 0xa2646970667358221220515190382836d5e246967d5576772f104cf6cf1c72402a0f1176b11cf50122b964736f6c63430008120033\n}\n",
				"bytecode": {
					"linkReferences": {},
					"object": "608060405234801561001057600080fd5b5061015b806100206000396000f3fe608060405234801561001057600080fd5b50600436106100365760003560e01c8063d32cb0fe1461003b578063f8a8fd6d14610045575b600080fd5b61004361004f565b005b61004d61009b565b005b603c80146100605761005f6100f6565b5b620151808014610073576100726100f6565b5b620151808014610086576100856100f6565b5b62093a808014610099576100986100f6565b5b565b670de0b6b3a764000080146100b3576100b26100f6565b5b600180146100c4576100c36100f6565b5b670de0b6b3a764000080146100dc576100db6100f6565b5b671bc16d674ec8000080146100f4576100f36100f6565b5b565b7f4e487b7100000000000000000000000000000000000000000000000000000000600052600160045260246000fdfea2646970667358221220515190382836d5e246967d5576772f104cf6cf1c72402a0f1176b11cf50122b964736f6c63430008120033",
					"opcodes": "PUSH1 0x80 PUSH1 0x40 MSTORE CALLVALUE DUP1 ISZERO PUSH2 0x10 JUMPI PUSH1 0x0 DUP1 REVERT JUMPDEST POP PUSH2 0x15B DUP1 PUSH2 0x20 PUSH1 0x0 CODECOPY PUSH1 0x0 RETURN INVALID PUSH1 0x80 PUSH1 0x40 MSTORE CALLVALUE DUP1 ISZERO PUSH2 0x10 JUMPI PUSH1 0x0 DUP1 REVERT JUMPDEST POP PUSH1 0x4 CALLDATASIZE LT PUSH2 0x36 JUMPI PUSH1 0x0 CALLDATALOAD PUSH1 0xE0 SHR DUP1 PUSH4 0xD32CB0FE EQ PUSH2 0x3B JUMPI DUP1 PUSH4 0xF8A8FD6D EQ PUSH2 0x45 JUMPI JUMPDEST PUSH1 0x0 DUP1 REVERT JUMPDEST PUSH2 0x43 PUSH2 0x4F JUMP JUMPDEST STOP JUMPDEST PUSH2 0x4D PUSH2 0x9B JUMP JUMPDEST STOP JUMPDEST PUSH1 0x3C DUP1 EQ PUSH2 0x60 JUMPI PUSH2 0x5F PUSH2 0xF6 JUMP JUMPDEST JUMPDEST PUSH3 0x15180 DUP1 EQ PUSH2 0x73 JUMPI PUSH2 0x72 PUSH2 0xF6 JUMP JUMPDEST JUMPDEST PUSH3 0x15180 DUP1 EQ PUSH2 0x86 JUMPI PUSH2 0x85 PUSH2 0xF6 JUMP JUMPDEST JUMPDEST PUSH3 0x93A80 DUP1 EQ PUSH2 0x99 JUMPI PUSH2 0x98 PUSH2 0xF6 JUMP JUMPDEST JUMPDEST JUMP JUMPDEST PUSH8 0xDE0B6B3A7640000 DUP1 EQ PUSH2 0xB3 JUMPI PUSH2 0xB2 PUSH2 0xF6 JUMP JUMPDEST JUMPDEST PUSH1 0x1 DUP1 EQ PUSH2 0xC4 JUMPI PUSH2 0xC3 PUSH2 0xF6 JUMP JUMPDEST JUMPDEST PUSH8 0xDE0B6B3A7640000 DUP1 EQ PUSH2 0xDC JUMPI PUSH2 0xDB PUSH2 0xF6 JUMP JUMPDEST JUMPDEST PUSH8 0x1BC16D674EC80000 DUP1 EQ PUSH2 0xF4 JUMPI PUSH2 0xF3 PUSH2 0xF6 JUMP JUMPDEST JUMPDEST JUMP JUMPDEST PUSH32 0x4E487B7100000000000000000000000000000000000000000000000000000000 PUSH1 0x0 MSTORE PUSH1 0x1 PUSH1 0x4 MSTORE PUSH1 0x24 PUSH1 0x0 REVERT INVALID LOG2 PUSH5 0x6970667358 0x22 SLT KECCAK256 MLOAD MLOAD SWAP1 CODESIZE 0x28 CALLDATASIZE 0xD5 0xE2 CHAINID SWAP7 PUSH30 0x5576772F104CF6CF1C72402A0F1176B11CF50122B964736F6C6343000812 STOP CALLER "
				},
				"gasEstimates": {
					"creation": {
						"codeDepositCost": "69400",
						"executionCost": "117",
						"totalCost": "69517"
					},
					"external": {
						"exercise()": "214",
						"test()": "236"
					}
				},
				"methodIdentifiers": {
					"exercise()": "d32cb0fe",
					"test()": "f8a8fd6d"
				}
			},
			"storageLayout": {
				"storage": [],
				"types": null
			},
			"userdoc": {
				"kind": "user",
				"methods": {},
				"version": 1
			}
		}
	}
}