{
	"learnFunctions.sol": {
		"learnfunctionAddition": {
			"abi": [
				{
					"inputs": [],
					"name": "addNewValues",
					"outputs": [
						{
							"internalType": "uint256",
							"name": "",
							"type": "uint256"
						}
					],
					"stateMutability": "view",
					"type": "function"
				},
				{
					"inputs": [],
					"name": "addValues",
					"outputs": [
						{
							"internalType": "uint256",
							"name": "",
							"type": "uint256"
						}
					],
					"stateMutability": "view",
					"type": "function"
				},
				{
					"inputs": [
						{
							"internalType": "uint256",
							"name": "a",
							"type": "uint256"
						},
						{
							"internalType": "uint256",
							"name": "b",
							"type": "uint256"
						}
					],
					"name": "divideValues",
					"outputs": [
						{
							"internalType": "uint256",
							"name": "",
							"type": "uint256"
						}
					],
					"stateMutability": "view",
					"type": "function"
				},
				{
					"inputs": [
						{
							"internalType": "uint256",
							"name": "a",
							"type": "uint256"
						},
						{
							"internalType": "uint256",
							"name": "b",
							"type": "uint256"
						}
					],
					"name": "multiplyValues",
					"outputs": [
						{
							"internalType": "uint256",
							"name": "",
							"type": "uint256"
						}
					],
					"stateMutability": "view",
					"type": "function"
				},
				{
					"inputs": [
						{
							"internalType": "bool",
							"name": "closedDoor",
							"type": "bool"
						}
					],
					"name": "remoteControlOpen",
					"outputs": [
						{
							"internalType": "bool",
							"name": "",
							"type": "bool"
						}
					],
					"stateMutability": "nonpayable",
					"type": "function"
				}
			],
			"devdoc": {
				"kind": "dev",
				"methods": {},
				"version": 1
			},
			"evm": {
				"assembly": "    /* \"learnFunctions.sol\":37:643  contract learnfunctionAddition {... */\n  mstore(0x40, 0x80)\n  callvalue\n  dup1\n  iszero\n  tag_1\n  jumpi\n  0x00\n  dup1\n  revert\ntag_1:\n  pop\n  dataSize(sub_0)\n  dup1\n  dataOffset(sub_0)\n  0x00\n  codecopy\n  0x00\n  return\nstop\n\nsub_0: assembly {\n        /* \"learnFunctions.sol\":37:643  contract learnfunctionAddition {... */\n      mstore(0x40, 0x80)\n      callvalue\n      dup1\n      iszero\n      tag_1\n      jumpi\n      0x00\n      dup1\n      revert\n    tag_1:\n      pop\n      jumpi(tag_2, lt(calldatasize, 0x04))\n      shr(0xe0, calldataload(0x00))\n      dup1\n      0x166e7bdd\n      eq\n      tag_3\n      jumpi\n      dup1\n      0x273d1a3e\n      eq\n      tag_4\n      jumpi\n      dup1\n      0x8de969af\n      eq\n      tag_5\n      jumpi\n      dup1\n      0xd903a036\n      eq\n      tag_6\n      jumpi\n      dup1\n      0xe581bdca\n      eq\n      tag_7\n      jumpi\n    tag_2:\n      0x00\n      dup1\n      revert\n        /* \"learnFunctions.sol\":145:271  function addValues () public view returns(uint) {... */\n    tag_3:\n      tag_8\n      tag_9\n      jump\t// in\n    tag_8:\n      mload(0x40)\n      tag_10\n      swap2\n      swap1\n      tag_11\n      jump\t// in\n    tag_10:\n      mload(0x40)\n      dup1\n      swap2\n      sub\n      swap1\n      return\n        /* \"learnFunctions.sol\":71:143  function remoteControlOpen(bool closedDoor ) public returns(bool) {... */\n    tag_4:\n      tag_12\n      0x04\n      dup1\n      calldatasize\n      sub\n      dup2\n      add\n      swap1\n      tag_13\n      swap2\n      swap1\n      tag_14\n      jump\t// in\n    tag_13:\n      tag_15\n      jump\t// in\n    tag_12:\n      mload(0x40)\n      tag_16\n      swap2\n      swap1\n      tag_17\n      jump\t// in\n    tag_16:\n      mload(0x40)\n      dup1\n      swap2\n      sub\n      swap1\n      return\n        /* \"learnFunctions.sol\":410:524  function multiplyValues (uint a, uint b) public view returns (uint) {... */\n    tag_5:\n      tag_18\n      0x04\n      dup1\n      calldatasize\n      sub\n      dup2\n      add\n      swap1\n      tag_19\n      swap2\n      swap1\n      tag_20\n      jump\t// in\n    tag_19:\n      tag_21\n      jump\t// in\n    tag_18:\n      mload(0x40)\n      tag_22\n      swap2\n      swap1\n      tag_11\n      jump\t// in\n    tag_22:\n      mload(0x40)\n      dup1\n      swap2\n      sub\n      swap1\n      return\n        /* \"learnFunctions.sol\":528:640  function divideValues (uint a, uint b) public view returns (uint) {... */\n    tag_6:\n      tag_23\n      0x04\n      dup1\n      calldatasize\n      sub\n      dup2\n      add\n      swap1\n      tag_24\n      swap2\n      swap1\n      tag_20\n      jump\t// in\n    tag_24:\n      tag_25\n      jump\t// in\n    tag_23:\n      mload(0x40)\n      tag_26\n      swap2\n      swap1\n      tag_11\n      jump\t// in\n    tag_26:\n      mload(0x40)\n      dup1\n      swap2\n      sub\n      swap1\n      return\n        /* \"learnFunctions.sol\":275:406  function addNewValues () public view returns(uint) {... */\n    tag_7:\n      tag_27\n      tag_28\n      jump\t// in\n    tag_27:\n      mload(0x40)\n      tag_29\n      swap2\n      swap1\n      tag_11\n      jump\t// in\n    tag_29:\n      mload(0x40)\n      dup1\n      swap2\n      sub\n      swap1\n      return\n        /* \"learnFunctions.sol\":145:271  function addValues () public view returns(uint) {... */\n    tag_9:\n        /* \"learnFunctions.sol\":187:191  uint */\n      0x00\n        /* \"learnFunctions.sol\":200:206  uint a */\n      dup1\n        /* \"learnFunctions.sol\":208:210  10 */\n      0x0a\n        /* \"learnFunctions.sol\":200:210  uint a= 10 */\n      swap1\n      pop\n        /* \"learnFunctions.sol\":217:223  uint b */\n      0x00\n        /* \"learnFunctions.sol\":225:227  20 */\n      0x14\n        /* \"learnFunctions.sol\":217:227  uint b =20 */\n      swap1\n      pop\n        /* \"learnFunctions.sol\":234:241  uint ab */\n      0x00\n        /* \"learnFunctions.sol\":248:249  b */\n      dup2\n        /* \"learnFunctions.sol\":244:245  a */\n      dup4\n        /* \"learnFunctions.sol\":244:249  a + b */\n      tag_31\n      swap2\n      swap1\n      tag_32\n      jump\t// in\n    tag_31:\n        /* \"learnFunctions.sol\":234:249  uint ab = a + b */\n      swap1\n      pop\n        /* \"learnFunctions.sol\":263:265  ab */\n      dup1\n        /* \"learnFunctions.sol\":256:265  return ab */\n      swap4\n      pop\n      pop\n      pop\n      pop\n        /* \"learnFunctions.sol\":145:271  function addValues () public view returns(uint) {... */\n      swap1\n      jump\t// out\n        /* \"learnFunctions.sol\":71:143  function remoteControlOpen(bool closedDoor ) public returns(bool) {... */\n    tag_15:\n        /* \"learnFunctions.sol\":131:135  bool */\n      0x00\n        /* \"learnFunctions.sol\":71:143  function remoteControlOpen(bool closedDoor ) public returns(bool) {... */\n      swap2\n      swap1\n      pop\n      jump\t// out\n        /* \"learnFunctions.sol\":410:524  function multiplyValues (uint a, uint b) public view returns (uint) {... */\n    tag_21:\n        /* \"learnFunctions.sol\":472:476  uint */\n      0x00\n        /* \"learnFunctions.sol\":482:493  uint result */\n      dup1\n        /* \"learnFunctions.sol\":501:502  b */\n      dup3\n        /* \"learnFunctions.sol\":497:498  a */\n      dup5\n        /* \"learnFunctions.sol\":497:502  a * b */\n      tag_35\n      swap2\n      swap1\n      tag_36\n      jump\t// in\n    tag_35:\n        /* \"learnFunctions.sol\":482:503  uint result = (a * b) */\n      swap1\n      pop\n        /* \"learnFunctions.sol\":514:520  result */\n      dup1\n        /* \"learnFunctions.sol\":507:520  return result */\n      swap2\n      pop\n      pop\n        /* \"learnFunctions.sol\":410:524  function multiplyValues (uint a, uint b) public view returns (uint) {... */\n      swap3\n      swap2\n      pop\n      pop\n      jump\t// out\n        /* \"learnFunctions.sol\":528:640  function divideValues (uint a, uint b) public view returns (uint) {... */\n    tag_25:\n        /* \"learnFunctions.sol\":588:592  uint */\n      0x00\n        /* \"learnFunctions.sol\":598:609  uint result */\n      dup1\n        /* \"learnFunctions.sol\":617:618  b */\n      dup3\n        /* \"learnFunctions.sol\":613:614  a */\n      dup5\n        /* \"learnFunctions.sol\":613:618  a / b */\n      tag_38\n      swap2\n      swap1\n      tag_39\n      jump\t// in\n    tag_38:\n        /* \"learnFunctions.sol\":598:619  uint result = (a / b) */\n      swap1\n      pop\n        /* \"learnFunctions.sol\":630:636  result */\n      dup1\n        /* \"learnFunctions.sol\":623:636  return result */\n      swap2\n      pop\n      pop\n        /* \"learnFunctions.sol\":528:640  function divideValues (uint a, uint b) public view returns (uint) {... */\n      swap3\n      swap2\n      pop\n      pop\n      jump\t// out\n        /* \"learnFunctions.sol\":275:406  function addNewValues () public view returns(uint) {... */\n    tag_28:\n        /* \"learnFunctions.sol\":320:324  uint */\n      0x00\n        /* \"learnFunctions.sol\":333:339  uint a */\n      dup1\n        /* \"learnFunctions.sol\":341:344  100 */\n      0x64\n        /* \"learnFunctions.sol\":333:344  uint a= 100 */\n      swap1\n      pop\n        /* \"learnFunctions.sol\":351:357  uint b */\n      0x00\n        /* \"learnFunctions.sol\":359:362  200 */\n      0xc8\n        /* \"learnFunctions.sol\":351:362  uint b =200 */\n      swap1\n      pop\n        /* \"learnFunctions.sol\":369:376  uint ab */\n      0x00\n        /* \"learnFunctions.sol\":383:384  b */\n      dup2\n        /* \"learnFunctions.sol\":379:380  a */\n      dup4\n        /* \"learnFunctions.sol\":379:384  a + b */\n      tag_41\n      swap2\n      swap1\n      tag_32\n      jump\t// in\n    tag_41:\n        /* \"learnFunctions.sol\":369:384  uint ab = a + b */\n      swap1\n      pop\n        /* \"learnFunctions.sol\":398:400  ab */\n      dup1\n        /* \"learnFunctions.sol\":391:400  return ab */\n      swap4\n      pop\n      pop\n      pop\n      pop\n        /* \"learnFunctions.sol\":275:406  function addNewValues () public view returns(uint) {... */\n      swap1\n      jump\t// out\n        /* \"#utility.yul\":7:84   */\n    tag_42:\n        /* \"#utility.yul\":44:51   */\n      0x00\n        /* \"#utility.yul\":73:78   */\n      dup2\n        /* \"#utility.yul\":62:78   */\n      swap1\n      pop\n        /* \"#utility.yul\":7:84   */\n      swap2\n      swap1\n      pop\n      jump\t// out\n        /* \"#utility.yul\":90:208   */\n    tag_43:\n        /* \"#utility.yul\":177:201   */\n      tag_58\n        /* \"#utility.yul\":195:200   */\n      dup2\n        /* \"#utility.yul\":177:201   */\n      tag_42\n      jump\t// in\n    tag_58:\n        /* \"#utility.yul\":172:175   */\n      dup3\n        /* \"#utility.yul\":165:202   */\n      mstore\n        /* \"#utility.yul\":90:208   */\n      pop\n      pop\n      jump\t// out\n        /* \"#utility.yul\":214:436   */\n    tag_11:\n        /* \"#utility.yul\":307:311   */\n      0x00\n        /* \"#utility.yul\":345:347   */\n      0x20\n        /* \"#utility.yul\":334:343   */\n      dup3\n        /* \"#utility.yul\":330:348   */\n      add\n        /* \"#utility.yul\":322:348   */\n      swap1\n      pop\n        /* \"#utility.yul\":358:429   */\n      tag_60\n        /* \"#utility.yul\":426:427   */\n      0x00\n        /* \"#utility.yul\":415:424   */\n      dup4\n        /* \"#utility.yul\":411:428   */\n      add\n        /* \"#utility.yul\":402:408   */\n      dup5\n        /* \"#utility.yul\":358:429   */\n      tag_43\n      jump\t// in\n    tag_60:\n        /* \"#utility.yul\":214:436   */\n      swap3\n      swap2\n      pop\n      pop\n      jump\t// out\n        /* \"#utility.yul\":523:640   */\n    tag_45:\n        /* \"#utility.yul\":632:633   */\n      0x00\n        /* \"#utility.yul\":629:630   */\n      dup1\n        /* \"#utility.yul\":622:634   */\n      revert\n        /* \"#utility.yul\":769:859   */\n    tag_47:\n        /* \"#utility.yul\":803:810   */\n      0x00\n        /* \"#utility.yul\":846:851   */\n      dup2\n        /* \"#utility.yul\":839:852   */\n      iszero\n        /* \"#utility.yul\":832:853   */\n      iszero\n        /* \"#utility.yul\":821:853   */\n      swap1\n      pop\n        /* \"#utility.yul\":769:859   */\n      swap2\n      swap1\n      pop\n      jump\t// out\n        /* \"#utility.yul\":865:981   */\n    tag_48:\n        /* \"#utility.yul\":935:956   */\n      tag_66\n        /* \"#utility.yul\":950:955   */\n      dup2\n        /* \"#utility.yul\":935:956   */\n      tag_47\n      jump\t// in\n    tag_66:\n        /* \"#utility.yul\":928:933   */\n      dup2\n        /* \"#utility.yul\":925:957   */\n      eq\n        /* \"#utility.yul\":915:975   */\n      tag_67\n      jumpi\n        /* \"#utility.yul\":971:972   */\n      0x00\n        /* \"#utility.yul\":968:969   */\n      dup1\n        /* \"#utility.yul\":961:973   */\n      revert\n        /* \"#utility.yul\":915:975   */\n    tag_67:\n        /* \"#utility.yul\":865:981   */\n      pop\n      jump\t// out\n        /* \"#utility.yul\":987:1120   */\n    tag_49:\n        /* \"#utility.yul\":1030:1035   */\n      0x00\n        /* \"#utility.yul\":1068:1074   */\n      dup2\n        /* \"#utility.yul\":1055:1075   */\n      calldataload\n        /* \"#utility.yul\":1046:1075   */\n      swap1\n      pop\n        /* \"#utility.yul\":1084:1114   */\n      tag_69\n        /* \"#utility.yul\":1108:1113   */\n      dup2\n        /* \"#utility.yul\":1084:1114   */\n      tag_48\n      jump\t// in\n    tag_69:\n        /* \"#utility.yul\":987:1120   */\n      swap3\n      swap2\n      pop\n      pop\n      jump\t// out\n        /* \"#utility.yul\":1126:1449   */\n    tag_14:\n        /* \"#utility.yul\":1182:1188   */\n      0x00\n        /* \"#utility.yul\":1231:1233   */\n      0x20\n        /* \"#utility.yul\":1219:1228   */\n      dup3\n        /* \"#utility.yul\":1210:1217   */\n      dup5\n        /* \"#utility.yul\":1206:1229   */\n      sub\n        /* \"#utility.yul\":1202:1234   */\n      slt\n        /* \"#utility.yul\":1199:1318   */\n      iszero\n      tag_71\n      jumpi\n        /* \"#utility.yul\":1237:1316   */\n      tag_72\n      tag_45\n      jump\t// in\n    tag_72:\n        /* \"#utility.yul\":1199:1318   */\n    tag_71:\n        /* \"#utility.yul\":1357:1358   */\n      0x00\n        /* \"#utility.yul\":1382:1432   */\n      tag_73\n        /* \"#utility.yul\":1424:1431   */\n      dup5\n        /* \"#utility.yul\":1415:1421   */\n      dup3\n        /* \"#utility.yul\":1404:1413   */\n      dup6\n        /* \"#utility.yul\":1400:1422   */\n      add\n        /* \"#utility.yul\":1382:1432   */\n      tag_49\n      jump\t// in\n    tag_73:\n        /* \"#utility.yul\":1372:1432   */\n      swap2\n      pop\n        /* \"#utility.yul\":1328:1442   */\n      pop\n        /* \"#utility.yul\":1126:1449   */\n      swap3\n      swap2\n      pop\n      pop\n      jump\t// out\n        /* \"#utility.yul\":1455:1564   */\n    tag_50:\n        /* \"#utility.yul\":1536:1557   */\n      tag_75\n        /* \"#utility.yul\":1551:1556   */\n      dup2\n        /* \"#utility.yul\":1536:1557   */\n      tag_47\n      jump\t// in\n    tag_75:\n        /* \"#utility.yul\":1531:1534   */\n      dup3\n        /* \"#utility.yul\":1524:1558   */\n      mstore\n        /* \"#utility.yul\":1455:1564   */\n      pop\n      pop\n      jump\t// out\n        /* \"#utility.yul\":1570:1780   */\n    tag_17:\n        /* \"#utility.yul\":1657:1661   */\n      0x00\n        /* \"#utility.yul\":1695:1697   */\n      0x20\n        /* \"#utility.yul\":1684:1693   */\n      dup3\n        /* \"#utility.yul\":1680:1698   */\n      add\n        /* \"#utility.yul\":1672:1698   */\n      swap1\n      pop\n        /* \"#utility.yul\":1708:1773   */\n      tag_77\n        /* \"#utility.yul\":1770:1771   */\n      0x00\n        /* \"#utility.yul\":1759:1768   */\n      dup4\n        /* \"#utility.yul\":1755:1772   */\n      add\n        /* \"#utility.yul\":1746:1752   */\n      dup5\n        /* \"#utility.yul\":1708:1773   */\n      tag_50\n      jump\t// in\n    tag_77:\n        /* \"#utility.yul\":1570:1780   */\n      swap3\n      swap2\n      pop\n      pop\n      jump\t// out\n        /* \"#utility.yul\":1786:1908   */\n    tag_51:\n        /* \"#utility.yul\":1859:1883   */\n      tag_79\n        /* \"#utility.yul\":1877:1882   */\n      dup2\n        /* \"#utility.yul\":1859:1883   */\n      tag_42\n      jump\t// in\n    tag_79:\n        /* \"#utility.yul\":1852:1857   */\n      dup2\n        /* \"#utility.yul\":1849:1884   */\n      eq\n        /* \"#utility.yul\":1839:1902   */\n      tag_80\n      jumpi\n        /* \"#utility.yul\":1898:1899   */\n      0x00\n        /* \"#utility.yul\":1895:1896   */\n      dup1\n        /* \"#utility.yul\":1888:1900   */\n      revert\n        /* \"#utility.yul\":1839:1902   */\n    tag_80:\n        /* \"#utility.yul\":1786:1908   */\n      pop\n      jump\t// out\n        /* \"#utility.yul\":1914:2053   */\n    tag_52:\n        /* \"#utility.yul\":1960:1965   */\n      0x00\n        /* \"#utility.yul\":1998:2004   */\n      dup2\n        /* \"#utility.yul\":1985:2005   */\n      calldataload\n        /* \"#utility.yul\":1976:2005   */\n      swap1\n      pop\n        /* \"#utility.yul\":2014:2047   */\n      tag_82\n        /* \"#utility.yul\":2041:2046   */\n      dup2\n        /* \"#utility.yul\":2014:2047   */\n      tag_51\n      jump\t// in\n    tag_82:\n        /* \"#utility.yul\":1914:2053   */\n      swap3\n      swap2\n      pop\n      pop\n      jump\t// out\n        /* \"#utility.yul\":2059:2533   */\n    tag_20:\n        /* \"#utility.yul\":2127:2133   */\n      0x00\n        /* \"#utility.yul\":2135:2141   */\n      dup1\n        /* \"#utility.yul\":2184:2186   */\n      0x40\n        /* \"#utility.yul\":2172:2181   */\n      dup4\n        /* \"#utility.yul\":2163:2170   */\n      dup6\n        /* \"#utility.yul\":2159:2182   */\n      sub\n        /* \"#utility.yul\":2155:2187   */\n      slt\n        /* \"#utility.yul\":2152:2271   */\n      iszero\n      tag_84\n      jumpi\n        /* \"#utility.yul\":2190:2269   */\n      tag_85\n      tag_45\n      jump\t// in\n    tag_85:\n        /* \"#utility.yul\":2152:2271   */\n    tag_84:\n        /* \"#utility.yul\":2310:2311   */\n      0x00\n        /* \"#utility.yul\":2335:2388   */\n      tag_86\n        /* \"#utility.yul\":2380:2387   */\n      dup6\n        /* \"#utility.yul\":2371:2377   */\n      dup3\n        /* \"#utility.yul\":2360:2369   */\n      dup7\n        /* \"#utility.yul\":2356:2378   */\n      add\n        /* \"#utility.yul\":2335:2388   */\n      tag_52\n      jump\t// in\n    tag_86:\n        /* \"#utility.yul\":2325:2388   */\n      swap3\n      pop\n        /* \"#utility.yul\":2281:2398   */\n      pop\n        /* \"#utility.yul\":2437:2439   */\n      0x20\n        /* \"#utility.yul\":2463:2516   */\n      tag_87\n        /* \"#utility.yul\":2508:2515   */\n      dup6\n        /* \"#utility.yul\":2499:2505   */\n      dup3\n        /* \"#utility.yul\":2488:2497   */\n      dup7\n        /* \"#utility.yul\":2484:2506   */\n      add\n        /* \"#utility.yul\":2463:2516   */\n      tag_52\n      jump\t// in\n    tag_87:\n        /* \"#utility.yul\":2453:2516   */\n      swap2\n      pop\n        /* \"#utility.yul\":2408:2526   */\n      pop\n        /* \"#utility.yul\":2059:2533   */\n      swap3\n      pop\n      swap3\n      swap1\n      pop\n      jump\t// out\n        /* \"#utility.yul\":2539:2719   */\n    tag_53:\n        /* \"#utility.yul\":2587:2664   */\n      0x4e487b7100000000000000000000000000000000000000000000000000000000\n        /* \"#utility.yul\":2584:2585   */\n      0x00\n        /* \"#utility.yul\":2577:2665   */\n      mstore\n        /* \"#utility.yul\":2684:2688   */\n      0x11\n        /* \"#utility.yul\":2681:2682   */\n      0x04\n        /* \"#utility.yul\":2674:2689   */\n      mstore\n        /* \"#utility.yul\":2708:2712   */\n      0x24\n        /* \"#utility.yul\":2705:2706   */\n      0x00\n        /* \"#utility.yul\":2698:2713   */\n      revert\n        /* \"#utility.yul\":2725:2916   */\n    tag_32:\n        /* \"#utility.yul\":2765:2768   */\n      0x00\n        /* \"#utility.yul\":2784:2804   */\n      tag_90\n        /* \"#utility.yul\":2802:2803   */\n      dup3\n        /* \"#utility.yul\":2784:2804   */\n      tag_42\n      jump\t// in\n    tag_90:\n        /* \"#utility.yul\":2779:2804   */\n      swap2\n      pop\n        /* \"#utility.yul\":2818:2838   */\n      tag_91\n        /* \"#utility.yul\":2836:2837   */\n      dup4\n        /* \"#utility.yul\":2818:2838   */\n      tag_42\n      jump\t// in\n    tag_91:\n        /* \"#utility.yul\":2813:2838   */\n      swap3\n      pop\n        /* \"#utility.yul\":2861:2862   */\n      dup3\n        /* \"#utility.yul\":2858:2859   */\n      dup3\n        /* \"#utility.yul\":2854:2863   */\n      add\n        /* \"#utility.yul\":2847:2863   */\n      swap1\n      pop\n        /* \"#utility.yul\":2882:2885   */\n      dup1\n        /* \"#utility.yul\":2879:2880   */\n      dup3\n        /* \"#utility.yul\":2876:2886   */\n      gt\n        /* \"#utility.yul\":2873:2909   */\n      iszero\n      tag_92\n      jumpi\n        /* \"#utility.yul\":2889:2907   */\n      tag_93\n      tag_53\n      jump\t// in\n    tag_93:\n        /* \"#utility.yul\":2873:2909   */\n    tag_92:\n        /* \"#utility.yul\":2725:2916   */\n      swap3\n      swap2\n      pop\n      pop\n      jump\t// out\n        /* \"#utility.yul\":2922:3332   */\n    tag_36:\n        /* \"#utility.yul\":2962:2969   */\n      0x00\n        /* \"#utility.yul\":2985:3005   */\n      tag_95\n        /* \"#utility.yul\":3003:3004   */\n      dup3\n        /* \"#utility.yul\":2985:3005   */\n      tag_42\n      jump\t// in\n    tag_95:\n        /* \"#utility.yul\":2980:3005   */\n      swap2\n      pop\n        /* \"#utility.yul\":3019:3039   */\n      tag_96\n        /* \"#utility.yul\":3037:3038   */\n      dup4\n        /* \"#utility.yul\":3019:3039   */\n      tag_42\n      jump\t// in\n    tag_96:\n        /* \"#utility.yul\":3014:3039   */\n      swap3\n      pop\n        /* \"#utility.yul\":3074:3075   */\n      dup3\n        /* \"#utility.yul\":3071:3072   */\n      dup3\n        /* \"#utility.yul\":3067:3076   */\n      mul\n        /* \"#utility.yul\":3096:3126   */\n      tag_97\n        /* \"#utility.yul\":3114:3125   */\n      dup2\n        /* \"#utility.yul\":3096:3126   */\n      tag_42\n      jump\t// in\n    tag_97:\n        /* \"#utility.yul\":3085:3126   */\n      swap2\n      pop\n        /* \"#utility.yul\":3275:3276   */\n      dup3\n        /* \"#utility.yul\":3266:3273   */\n      dup3\n        /* \"#utility.yul\":3262:3277   */\n      div\n        /* \"#utility.yul\":3259:3260   */\n      dup5\n        /* \"#utility.yul\":3256:3278   */\n      eq\n        /* \"#utility.yul\":3236:3237   */\n      dup4\n        /* \"#utility.yul\":3229:3238   */\n      iszero\n        /* \"#utility.yul\":3209:3292   */\n      or\n        /* \"#utility.yul\":3186:3325   */\n      tag_98\n      jumpi\n        /* \"#utility.yul\":3305:3323   */\n      tag_99\n      tag_53\n      jump\t// in\n    tag_99:\n        /* \"#utility.yul\":3186:3325   */\n    tag_98:\n        /* \"#utility.yul\":2970:3332   */\n      pop\n        /* \"#utility.yul\":2922:3332   */\n      swap3\n      swap2\n      pop\n      pop\n      jump\t// out\n        /* \"#utility.yul\":3338:3518   */\n    tag_54:\n        /* \"#utility.yul\":3386:3463   */\n      0x4e487b7100000000000000000000000000000000000000000000000000000000\n        /* \"#utility.yul\":3383:3384   */\n      0x00\n        /* \"#utility.yul\":3376:3464   */\n      mstore\n        /* \"#utility.yul\":3483:3487   */\n      0x12\n        /* \"#utility.yul\":3480:3481   */\n      0x04\n        /* \"#utility.yul\":3473:3488   */\n      mstore\n        /* \"#utility.yul\":3507:3511   */\n      0x24\n        /* \"#utility.yul\":3504:3505   */\n      0x00\n        /* \"#utility.yul\":3497:3512   */\n      revert\n        /* \"#utility.yul\":3524:3709   */\n    tag_39:\n        /* \"#utility.yul\":3564:3565   */\n      0x00\n        /* \"#utility.yul\":3581:3601   */\n      tag_102\n        /* \"#utility.yul\":3599:3600   */\n      dup3\n        /* \"#utility.yul\":3581:3601   */\n      tag_42\n      jump\t// in\n    tag_102:\n        /* \"#utility.yul\":3576:3601   */\n      swap2\n      pop\n        /* \"#utility.yul\":3615:3635   */\n      tag_103\n        /* \"#utility.yul\":3633:3634   */\n      dup4\n        /* \"#utility.yul\":3615:3635   */\n      tag_42\n      jump\t// in\n    tag_103:\n        /* \"#utility.yul\":3610:3635   */\n      swap3\n      pop\n        /* \"#utility.yul\":3654:3655   */\n      dup3\n        /* \"#utility.yul\":3644:3679   */\n      tag_104\n      jumpi\n        /* \"#utility.yul\":3659:3677   */\n      tag_105\n      tag_54\n      jump\t// in\n    tag_105:\n        /* \"#utility.yul\":3644:3679   */\n    tag_104:\n        /* \"#utility.yul\":3701:3702   */\n      dup3\n        /* \"#utility.yul\":3698:3699   */\n      dup3\n        /* \"#utility.yul\":3694:3703   */\n      div\n        /* \"#utility.yul\":3689:3703   */\n      swap1\n      pop\n        /* \"#utility.yul\":3524:3709   */\n      swap3\n      swap2\n      pop\n      pop\n      jump\t// out\n\n    auxdata: 0xa2646970667358221220b1e53804a95185a2bd5146d947578a1b2419e05eb86283110410011329586cf364736f6c63430008120033\n}\n",
				"bytecode": {
					"linkReferences": {},
					"object": "608060405234801561001057600080fd5b50610420806100206000396000f3fe608060405234801561001057600080fd5b50600436106100575760003560e01c8063166e7bdd1461005c578063273d1a3e1461007a5780638de969af146100aa578063d903a036146100da578063e581bdca1461010a575b600080fd5b610064610128565b60405161007191906101ca565b60405180910390f35b610094600480360381019061008f9190610222565b61014e565b6040516100a1919061025e565b60405180910390f35b6100c460048036038101906100bf91906102a5565b610155565b6040516100d191906101ca565b60405180910390f35b6100f460048036038101906100ef91906102a5565b610170565b60405161010191906101ca565b60405180910390f35b61011261018b565b60405161011f91906101ca565b60405180910390f35b600080600a9050600060149050600081836101439190610314565b905080935050505090565b6000919050565b60008082846101649190610348565b90508091505092915050565b600080828461017f91906103b9565b90508091505092915050565b60008060649050600060c89050600081836101a69190610314565b905080935050505090565b6000819050919050565b6101c4816101b1565b82525050565b60006020820190506101df60008301846101bb565b92915050565b600080fd5b60008115159050919050565b6101ff816101ea565b811461020a57600080fd5b50565b60008135905061021c816101f6565b92915050565b600060208284031215610238576102376101e5565b5b60006102468482850161020d565b91505092915050565b610258816101ea565b82525050565b6000602082019050610273600083018461024f565b92915050565b610282816101b1565b811461028d57600080fd5b50565b60008135905061029f81610279565b92915050565b600080604083850312156102bc576102bb6101e5565b5b60006102ca85828601610290565b92505060206102db85828601610290565b9150509250929050565b7f4e487b7100000000000000000000000000000000000000000000000000000000600052601160045260246000fd5b600061031f826101b1565b915061032a836101b1565b9250828201905080821115610342576103416102e5565b5b92915050565b6000610353826101b1565b915061035e836101b1565b925082820261036c816101b1565b91508282048414831517610383576103826102e5565b5b5092915050565b7f4e487b7100000000000000000000000000000000000000000000000000000000600052601260045260246000fd5b60006103c4826101b1565b91506103cf836101b1565b9250826103df576103de61038a565b5b82820490509291505056fea2646970667358221220b1e53804a95185a2bd5146d947578a1b2419e05eb86283110410011329586cf364736f6c63430008120033",
					"opcodes": "PUSH1 0x80 PUSH1 0x40 MSTORE CALLVALUE DUP1 ISZERO PUSH2 0x10 JUMPI PUSH1 0x0 DUP1 REVERT JUMPDEST POP PUSH2 0x420 DUP1 PUSH2 0x20 PUSH1 0x0 CODECOPY PUSH1 0x0 RETURN INVALID PUSH1 0x80 PUSH1 0x40 MSTORE CALLVALUE DUP1 ISZERO PUSH2 0x10 JUMPI PUSH1 0x0 DUP1 REVERT JUMPDEST POP PUSH1 0x4 CALLDATASIZE LT PUSH2 0x57 JUMPI PUSH1 0x0 CALLDATALOAD PUSH1 0xE0 SHR DUP1 PUSH4 0x166E7BDD EQ PUSH2 0x5C JUMPI DUP1 PUSH4 0x273D1A3E EQ PUSH2 0x7A JUMPI DUP1 PUSH4 0x8DE969AF EQ PUSH2 0xAA JUMPI DUP1 PUSH4 0xD903A036 EQ PUSH2 0xDA JUMPI DUP1 PUSH4 0xE581BDCA EQ PUSH2 0x10A JUMPI JUMPDEST PUSH1 0x0 DUP1 REVERT JUMPDEST PUSH2 0x64 PUSH2 0x128 JUMP JUMPDEST PUSH1 0x40 MLOAD PUSH2 0x71 SWAP2 SWAP1 PUSH2 0x1CA JUMP JUMPDEST PUSH1 0x40 MLOAD DUP1 SWAP2 SUB SWAP1 RETURN JUMPDEST PUSH2 0x94 PUSH1 0x4 DUP1 CALLDATASIZE SUB DUP2 ADD SWAP1 PUSH2 0x8F SWAP2 SWAP1 PUSH2 0x222 JUMP JUMPDEST PUSH2 0x14E JUMP JUMPDEST PUSH1 0x40 MLOAD PUSH2 0xA1 SWAP2 SWAP1 PUSH2 0x25E JUMP JUMPDEST PUSH1 0x40 MLOAD DUP1 SWAP2 SUB SWAP1 RETURN JUMPDEST PUSH2 0xC4 PUSH1 0x4 DUP1 CALLDATASIZE SUB DUP2 ADD SWAP1 PUSH2 0xBF SWAP2 SWAP1 PUSH2 0x2A5 JUMP JUMPDEST PUSH2 0x155 JUMP JUMPDEST PUSH1 0x40 MLOAD PUSH2 0xD1 SWAP2 SWAP1 PUSH2 0x1CA JUMP JUMPDEST PUSH1 0x40 MLOAD DUP1 SWAP2 SUB SWAP1 RETURN JUMPDEST PUSH2 0xF4 PUSH1 0x4 DUP1 CALLDATASIZE SUB DUP2 ADD SWAP1 PUSH2 0xEF SWAP2 SWAP1 PUSH2 0x2A5 JUMP JUMPDEST PUSH2 0x170 JUMP JUMPDEST PUSH1 0x40 MLOAD PUSH2 0x101 SWAP2 SWAP1 PUSH2 0x1CA JUMP JUMPDEST PUSH1 0x40 MLOAD DUP1 SWAP2 SUB SWAP1 RETURN JUMPDEST PUSH2 0x112 PUSH2 0x18B JUMP JUMPDEST PUSH1 0x40 MLOAD PUSH2 0x11F SWAP2 SWAP1 PUSH2 0x1CA JUMP JUMPDEST PUSH1 0x40 MLOAD DUP1 SWAP2 SUB SWAP1 RETURN JUMPDEST PUSH1 0x0 DUP1 PUSH1 0xA SWAP1 POP PUSH1 0x0 PUSH1 0x14 SWAP1 POP PUSH1 0x0 DUP2 DUP4 PUSH2 0x143 SWAP2 SWAP1 PUSH2 0x314 JUMP JUMPDEST SWAP1 POP DUP1 SWAP4 POP POP POP POP SWAP1 JUMP JUMPDEST PUSH1 0x0 SWAP2 SWAP1 POP JUMP JUMPDEST PUSH1 0x0 DUP1 DUP3 DUP5 PUSH2 0x164 SWAP2 SWAP1 PUSH2 0x348 JUMP JUMPDEST SWAP1 POP DUP1 SWAP2 POP POP SWAP3 SWAP2 POP POP JUMP JUMPDEST PUSH1 0x0 DUP1 DUP3 DUP5 PUSH2 0x17F SWAP2 SWAP1 PUSH2 0x3B9 JUMP JUMPDEST SWAP1 POP DUP1 SWAP2 POP POP SWAP3 SWAP2 POP POP JUMP JUMPDEST PUSH1 0x0 DUP1 PUSH1 0x64 SWAP1 POP PUSH1 0x0 PUSH1 0xC8 SWAP1 POP PUSH1 0x0 DUP2 DUP4 PUSH2 0x1A6 SWAP2 SWAP1 PUSH2 0x314 JUMP JUMPDEST SWAP1 POP DUP1 SWAP4 POP POP POP POP SWAP1 JUMP JUMPDEST PUSH1 0x0 DUP2 SWAP1 POP SWAP2 SWAP1 POP JUMP JUMPDEST PUSH2 0x1C4 DUP2 PUSH2 0x1B1 JUMP JUMPDEST DUP3 MSTORE POP POP JUMP JUMPDEST PUSH1 0x0 PUSH1 0x20 DUP3 ADD SWAP1 POP PUSH2 0x1DF PUSH1 0x0 DUP4 ADD DUP5 PUSH2 0x1BB JUMP JUMPDEST SWAP3 SWAP2 POP POP JUMP JUMPDEST PUSH1 0x0 DUP1 REVERT JUMPDEST PUSH1 0x0 DUP2 ISZERO ISZERO SWAP1 POP SWAP2 SWAP1 POP JUMP JUMPDEST PUSH2 0x1FF DUP2 PUSH2 0x1EA JUMP JUMPDEST DUP2 EQ PUSH2 0x20A JUMPI PUSH1 0x0 DUP1 REVERT JUMPDEST POP JUMP JUMPDEST PUSH1 0x0 DUP2 CALLDATALOAD SWAP1 POP PUSH2 0x21C DUP2 PUSH2 0x1F6 JUMP JUMPDEST SWAP3 SWAP2 POP POP JUMP JUMPDEST PUSH1 0x0 PUSH1 0x20 DUP3 DUP5 SUB SLT ISZERO PUSH2 0x238 JUMPI PUSH2 0x237 PUSH2 0x1E5 JUMP JUMPDEST JUMPDEST PUSH1 0x0 PUSH2 0x246 DUP5 DUP3 DUP6 ADD PUSH2 0x20D JUMP JUMPDEST SWAP2 POP POP SWAP3 SWAP2 POP POP JUMP JUMPDEST PUSH2 0x258 DUP2 PUSH2 0x1EA JUMP JUMPDEST DUP3 MSTORE POP POP JUMP JUMPDEST PUSH1 0x0 PUSH1 0x20 DUP3 ADD SWAP1 POP PUSH2 0x273 PUSH1 0x0 DUP4 ADD DUP5 PUSH2 0x24F JUMP JUMPDEST SWAP3 SWAP2 POP POP JUMP JUMPDEST PUSH2 0x282 DUP2 PUSH2 0x1B1 JUMP JUMPDEST DUP2 EQ PUSH2 0x28D JUMPI PUSH1 0x0 DUP1 REVERT JUMPDEST POP JUMP JUMPDEST PUSH1 0x0 DUP2 CALLDATALOAD SWAP1 POP PUSH2 0x29F DUP2 PUSH2 0x279 JUMP JUMPDEST SWAP3 SWAP2 POP POP JUMP JUMPDEST PUSH1 0x0 DUP1 PUSH1 0x40 DUP4 DUP6 SUB SLT ISZERO PUSH2 0x2BC JUMPI PUSH2 0x2BB PUSH2 0x1E5 JUMP JUMPDEST JUMPDEST PUSH1 0x0 PUSH2 0x2CA DUP6 DUP3 DUP7 ADD PUSH2 0x290 JUMP JUMPDEST SWAP3 POP POP PUSH1 0x20 PUSH2 0x2DB DUP6 DUP3 DUP7 ADD PUSH2 0x290 JUMP JUMPDEST SWAP2 POP POP SWAP3 POP SWAP3 SWAP1 POP JUMP JUMPDEST PUSH32 0x4E487B7100000000000000000000000000000000000000000000000000000000 PUSH1 0x0 MSTORE PUSH1 0x11 PUSH1 0x4 MSTORE PUSH1 0x24 PUSH1 0x0 REVERT JUMPDEST PUSH1 0x0 PUSH2 0x31F DUP3 PUSH2 0x1B1 JUMP JUMPDEST SWAP2 POP PUSH2 0x32A DUP4 PUSH2 0x1B1 JUMP JUMPDEST SWAP3 POP DUP3 DUP3 ADD SWAP1 POP DUP1 DUP3 GT ISZERO PUSH2 0x342 JUMPI PUSH2 0x341 PUSH2 0x2E5 JUMP JUMPDEST JUMPDEST SWAP3 SWAP2 POP POP JUMP JUMPDEST PUSH1 0x0 PUSH2 0x353 DUP3 PUSH2 0x1B1 JUMP JUMPDEST SWAP2 POP PUSH2 0x35E DUP4 PUSH2 0x1B1 JUMP JUMPDEST SWAP3 POP DUP3 DUP3 MUL PUSH2 0x36C DUP2 PUSH2 0x1B1 JUMP JUMPDEST SWAP2 POP DUP3 DUP3 DIV DUP5 EQ DUP4 ISZERO OR PUSH2 0x383 JUMPI PUSH2 0x382 PUSH2 0x2E5 JUMP JUMPDEST JUMPDEST POP SWAP3 SWAP2 POP POP JUMP JUMPDEST PUSH32 0x4E487B7100000000000000000000000000000000000000000000000000000000 PUSH1 0x0 MSTORE PUSH1 0x12 PUSH1 0x4 MSTORE PUSH1 0x24 PUSH1 0x0 REVERT JUMPDEST PUSH1 0x0 PUSH2 0x3C4 DUP3 PUSH2 0x1B1 JUMP JUMPDEST SWAP2 POP PUSH2 0x3CF DUP4 PUSH2 0x1B1 JUMP JUMPDEST SWAP3 POP DUP3 PUSH2 0x3DF JUMPI PUSH2 0x3DE PUSH2 0x38A JUMP JUMPDEST JUMPDEST DUP3 DUP3 DIV SWAP1 POP SWAP3 SWAP2 POP POP JUMP INVALID LOG2 PUSH5 0x6970667358 0x22 SLT KECCAK256 0xB1 0xE5 CODESIZE DIV 0xA9 MLOAD DUP6 LOG2 0xBD MLOAD CHAINID 0xD9 SELFBALANCE JUMPI DUP11 SHL 0x24 NOT 0xE0 0x5E 0xB8 PUSH3 0x831104 LT ADD SGT 0x29 PC PUSH13 0xF364736F6C6343000812003300 "
				},
				"gasEstimates": {
					"creation": {
						"codeDepositCost": "211200",
						"executionCost": "251",
						"totalCost": "211451"
					},
					"external": {
						"addNewValues()": "infinite",
						"addValues()": "infinite",
						"divideValues(uint256,uint256)": "infinite",
						"multiplyValues(uint256,uint256)": "infinite",
						"remoteControlOpen(bool)": "infinite"
					}
				},
				"methodIdentifiers": {
					"addNewValues()": "e581bdca",
					"addValues()": "166e7bdd",
					"divideValues(uint256,uint256)": "d903a036",
					"multiplyValues(uint256,uint256)": "8de969af",
					"remoteControlOpen(bool)": "273d1a3e"
				}
			},
			"storageLayout": {
				"storage": [],
				"types": null
			},
			"userdoc": {
				"kind": "user",
				"methods": {},
				"version": 1
			}
		}
	}
}