{
	"data": {
		"bytecode": {
			"linkReferences": {},
			"object": "60806040526004600055600660015534801561001a57600080fd5b506101278061002a6000396000f3fe6080604052348015600f57600080fd5b506004361060285760003560e01c80633da0ac7914602d575b600080fd5b60336035565b005b600154600054116078576040517f08c379a0000000000000000000000000000000000000000000000000000000008152600401606f9060d3565b60405180910390fd5b565b600082825260208201905092915050565b7f546861742069732066616c736500000000000000000000000000000000000000600082015250565b600060bf600d83607a565b915060c882608b565b602082019050919050565b6000602082019050818103600083015260ea8160b4565b905091905056fea2646970667358221220a7f0312e9af1b79f725943d85bbbe3e9b2ff7e456a310c659118c40f658544d164736f6c63430008120033",
			"opcodes": "PUSH1 0x80 PUSH1 0x40 MSTORE PUSH1 0x4 PUSH1 0x0 SSTORE PUSH1 0x6 PUSH1 0x1 SSTORE CALLVALUE DUP1 ISZERO PUSH2 0x1A JUMPI PUSH1 0x0 DUP1 REVERT JUMPDEST POP PUSH2 0x127 DUP1 PUSH2 0x2A PUSH1 0x0 CODECOPY PUSH1 0x0 RETURN INVALID PUSH1 0x80 PUSH1 0x40 MSTORE CALLVALUE DUP1 ISZERO PUSH1 0xF JUMPI PUSH1 0x0 DUP1 REVERT JUMPDEST POP PUSH1 0x4 CALLDATASIZE LT PUSH1 0x28 JUMPI PUSH1 0x0 CALLDATALOAD PUSH1 0xE0 SHR DUP1 PUSH4 0x3DA0AC79 EQ PUSH1 0x2D JUMPI JUMPDEST PUSH1 0x0 DUP1 REVERT JUMPDEST PUSH1 0x33 PUSH1 0x35 JUMP JUMPDEST STOP JUMPDEST PUSH1 0x1 SLOAD PUSH1 0x0 SLOAD GT PUSH1 0x78 JUMPI PUSH1 0x40 MLOAD PUSH32 0x8C379A000000000000000000000000000000000000000000000000000000000 DUP2 MSTORE PUSH1 0x4 ADD PUSH1 0x6F SWAP1 PUSH1 0xD3 JUMP JUMPDEST PUSH1 0x40 MLOAD DUP1 SWAP2 SUB SWAP1 REVERT JUMPDEST JUMP JUMPDEST PUSH1 0x0 DUP3 DUP3 MSTORE PUSH1 0x20 DUP3 ADD SWAP1 POP SWAP3 SWAP2 POP POP JUMP JUMPDEST PUSH32 0x546861742069732066616C736500000000000000000000000000000000000000 PUSH1 0x0 DUP3 ADD MSTORE POP JUMP JUMPDEST PUSH1 0x0 PUSH1 0xBF PUSH1 0xD DUP4 PUSH1 0x7A JUMP JUMPDEST SWAP2 POP PUSH1 0xC8 DUP3 PUSH1 0x8B JUMP JUMPDEST PUSH1 0x20 DUP3 ADD SWAP1 POP SWAP2 SWAP1 POP JUMP JUMPDEST PUSH1 0x0 PUSH1 0x20 DUP3 ADD SWAP1 POP DUP2 DUP2 SUB PUSH1 0x0 DUP4 ADD MSTORE PUSH1 0xEA DUP2 PUSH1 0xB4 JUMP JUMPDEST SWAP1 POP SWAP2 SWAP1 POP JUMP INVALID LOG2 PUSH5 0x6970667358 0x22 SLT KECCAK256 0xA7 CREATE BALANCE 0x2E SWAP11 CALL 0xB7 SWAP16 PUSH19 0x5943D85BBBE3E9B2FF7E456A310C659118C40F PUSH6 0x8544D164736F PUSH13 0x63430008120033000000000000 "
		},
		"gasEstimates": {
			"creation": {
				"codeDepositCost": "59000",
				"executionCost": "44323",
				"totalCost": "103323"
			},
			"external": {
				"compare()": "4634"
			}
		},
		"methodIdentifiers": {
			"compare()": "3da0ac79"
		}
	},
	"abi": [
		{
			"inputs": [],
			"name": "compare",
			"outputs": [],
			"stateMutability": "view",
			"type": "function"
		}
	]
}